:100000000C9434000C943E000C943E000C943E0082
:100010000C943E000C943E000C943E000C943E0068
:100020000C943E000C943E000C943E000C943E0058
:100030000C943E000C943E000C943E000C943E0048
:100040000C943E000C943E000C943E000C943E0038
:100050000C943E000C943E000C943E000C943E0028
:100060000C943E000C943E0011241FBECFEFD8E04C
:10007000DEBFCDBF0E9440000C948B000C940000AA
:10008000209A15B80E94730081E085B9E7EAF1E68D
:100090003197F1F700C0000015B8E7EAF1E63197B3
:1000A000F1F700C0000085B9FFE32DE083E0F150D7
:1000B00020408040E1F700C0000015B8C1E00E9478
:1000C0008400C5B920E030E090E008C0E9EFF0E03E
:1000D0003197F1F700C000002F5F3F4F2817390715
:1000E000ACF315B8ECCF1092C5008CE08093C4003F
:1000F000E0ECF0E080818260808388E18093C10041
:1001000086E08093C20008958091C00087FFFCCFF5
:0A0110008091C6000895F894FFCF17
:00000001FF
