:100000000C949C000C94CB000C94B9000C94B90097
:100010000C94B9000C94B9000C94B9000C94A7028C
:100020000C94B9000C94B9000C94B9000C94B9006C
:100030000C94B9000C94B9000C943D010C94B900D7
:100040000C94B9000C94B9000C94BB000C94B9004A
:100050000C94B9000C94B9000C94B9000C94B9003C
:100060000C94B9000C94B900003F4848483F000088
:10007000007F494949360000003E414141220000CD
:10008000007F4141413E0000007F4949494900004D
:10009000007F484848480000003E4149492E000082
:1000A000007F0808087F00000041417F41410000B7
:1000B00000060101017E0000007F080814630000B3
:1000C000007F010101010000007F2010207F00005F
:1000D000007F3008067F0000003E4141413E0000A5
:1000E000007F484848300000003C4247423C000046
:1000F000007F48484837000000324949492600003F
:100100000040407F40400000007E0101017E000071
:100110000078060106780000007F0204027F0000DC
:1001200000631408146300000070080708700000E2
:10013000004345495161000011241FBECFEFD8E0B4
:10014000DEBFCDBF11E0A0E0B1E0ECE4FBE002C017
:1001500005900D92AA30B107D9F716E0AAE0B1E0F8
:1001600001C01D92AD3BB107E1F70E9406040C945B
:10017000A4050C9400001F920F920FB60F92112449
:100180008F938091C60080930A018F910F900FBECC
:100190000F901F9018951F920F920FB60F92112477
:1001A000EF92FF920F931F932F933F934F935F9381
:1001B0006F937F938F939F93AF93BF9380910B0126
:1001C00090910C01A0910D01B0910E014091B306E8
:1001D0005091B4066091B5067091B6067C018D0110
:1001E000E41AF50A060B170BA80197018093B306D2
:1001F0009093B406A093B506B093B606283E03E0EC
:1002000030074105510510F084E407C02B3E11E092
:1002100031074105510518F08FEF87BD16C0213217
:1002200031054105510510F480E1F7CFA5E1B2E0B9
:100230000E94BB047250810991092AE09695879526
:10024000779567952A95D1F767BD16BC1092100176
:1002500010920F01BF91AF919F918F917F916F91FC
:100260005F914F913F912F911F910F91FF90EF90D0
:100270000F900FBE0F901F9018951F920F920FB600
:100280000F9211242F933F934F935F936F937F931C
:100290008F939F93AF93BF93EF93FF9380910F0141
:1002A000909110019C012C5E3F4F2C3331051CF0C6
:1002B0009C01285231093093BC062093BB069C0157
:1002C000285D3F4F2C3331052CF43093B806209332
:1002D000B70605C044979093B8068093B7061EBC36
:1002E0000DB407FEFDCF1EBC0DB407FEFDCF1EBC36
:1002F0000DB407FEFDCF1EBC0DB407FEFDCF80E0A0
:1003000090E07FEF68E17EBD0DB407FEFDCF409128
:100310000F0150911001FC01EE0FFF1FDF01A80F2C
:10032000B91F649F9001659F300D1124A20FB31F68
:10033000AF5EBE4F12962C91269526952EBD0DB41C
:1003400007FEFDCF40910F0150911001DF01A80F72
:10035000B91F649F9001659F300D1124A20FB31F38
:10036000AF5EBE4F11962C91269526952EBD0DB4ED
:1003700007FEFDCF40910F0150911001E80FF91FCA
:10038000649F9001659F300D1124E20FF31FEF5E13
:10039000FE4F20812EBD0DB407FEFDCF01968830A3
:1003A000910509F0B0CF80E090E07FEF68E17EBD7D
:1003B0000DB407FEFDCF4091BB065091BC06FC0179
:1003C000EE0FFF1FDF01A80FB91F649F9001659F0B
:1003D000300D1124A20FB31FAF5EBE4F12962C91A9
:1003E000269526952EBD0DB407FEFDCF4091BB0688
:1003F0005091BC06DF01A80FB91F649F9001659F53
:10040000300D1124A20FB31FAF5EBE4F11962C9179
:100410002EBD0DB407FEFDCF4091BB065091BC062A
:10042000E80FF91F649F9001659F300D1124E20FC2
:10043000F31FEF5EFE4F2081269526952EBD0DB44D
:1004400007FEFDCF01968830910509F0B0CF80E01E
:1004500090E07FEF68E17EBD0DB407FEFDCF4091D7
:10046000B7065091B806FC01EE0FFF1FDF01A80F81
:10047000B91F649F9001659F300D1124A20FB31F17
:10048000AF5EBE4F12962C912EBD0DB407FEFDCF70
:100490004091B7065091B806DF01A80FB91F649FBD
:1004A0009001659F300D1124A20FB31FAF5EBE4FA8
:1004B00011962C91269526952EBD0DB407FEFDCFE5
:1004C0004091B7065091B806E80FF91F649F90015C
:1004D000659F300D1124E20FF31FEF5EFE4F208168
:1004E000269526952EBD0DB407FEFDCF01968830CA
:1004F000910509F0B0CF8FEF8EBD0DB407FEFDCF93
:100500008FEF8EBD0DB407FEFDCF80910F0190914E
:10051000100101968C3391052CF490931001809377
:100520000F0104C01092100110920F01FF91EF9182
:10053000BF91AF919F918F917F916F915F914F91FB
:100540003F912F910F900FBE0F901F9018951F9203
:100550000F920FB60F9211248F939F93AF93BF9377
:1005600080910B0190910C01A0910D01B0910E01B1
:100570000196A11DB11D80930B0190930C01A093D6
:100580000D01B0930E01BF91AF919F918F910F908C
:100590000FBE0F901F901895EF92FF920F938C3320
:1005A0009105A8F46830710590F4FB01EE0FFF1F70
:1005B000E60FF71F38E1389FB001399F700D112405
:1005C000E60FF71FEE0DFF1D4083218302830F917D
:1005D000FF90EF9008952F923F924F925F926F920B
:1005E0007F928F929F92AF92BF92CF92DF92EF92C3
:1005F000FF920F931F93CF93DF93CDB7DEB728976A
:100600000FB6F894DEBF0FBECDBF542F322F102F80
:10061000FA82E98216019FE9980F9A3108F4805214
:1006200081548A3108F05EC06F83788768E0869FC6
:100630003001112447E0842E912CC30188599F4F2B
:100640003C014F805884A981BA81A415B5056CF48A
:10065000B1E08B1A9108EF81F8853197F887EF8325
:10066000FFEF8F169F0669F73DC06F817885621591
:10067000730574F36C3371052CF02B017CE3471A7E
:10068000510808C08F81988597FF04C02C019CE316
:10069000490E511CF301E80DF91DE491C12CD12C38
:1006A000AE2FB0E0BC83AB838B819C810C2C02C04D
:1006B000959587950A94E2F780FF0CC07501012F8C
:1006C000232F452FB601C2013E835D830E94CC02D9
:1006D0005D813E81BFEFCB1ADB0AE8E0CE16D10484
:1006E00019F7B6CF28960FB6F894DEBF0FBECDBF70
:1006F000DF91CF911F910F91FF90EF90DF90CF90FE
:10070000BF90AF909F908F907F906F905F904F9031
:100710003F902F9008952F923F924F925F926F9249
:100720007F928F929F92AF92BF92CF92DF92EF9281
:10073000FF920F931F93CF93DF9300D000D0CDB7DC
:10074000DEB71B01142F2983302F47013601250105
:10075000009779F16C33710524F0ECE32E1A31081F
:1007600005C077FF03C0FCE32F0E311C9C838B83F5
:10077000EB81FC818191FC83EB838823D1F05201D2
:1007800063017401032F2981412FB1013A830E9433
:10079000EB02A101485F5F4F3A814C3351051CF0D9
:1007A000A1014453510957FF02C0445C5F4F1A0135
:1007B000DFCF0F900F900F900F90DF91CF911F918F
:1007C0000F91FF90EF90DF90CF90BF90AF909F90F0
:1007D0008F907F906F905F904F903F902F900895F3
:1007E00040E050E020E030E0FC01E20FF31F108217
:1007F000118212822D5F3F4F28313105A9F74F5FDB
:100800005F4F48964C33510569F708951092BA0628
:100810001092B90690E080E80FB6F89480936100DA
:10082000909361000FBE8FEF84B915B810920B0141
:1008300010920C0110920D0110920E011092B2064E
:100840001092B10681E191E00E94F00384B58260CC
:1008500084BD85B5836085BD88EC87BD80916E00C1
:10086000826080936E008091B00082608093B000BF
:100870008091B10082608093B10089EF8093B300D2
:100880008091700082608093700080916900826026
:10089000809369008CB580658CBD8DB581608DBD00
:1008A00085B1837D85B91092C50083E38093C40030
:1008B00088E98093C10086E08093C2007894C0E00C
:1008C000D0E028EC822E912C3AE0632E712C1FEFA1
:1008D000D093BA06C093B90681E191E00E94F0037B
:1008E0000E948C056C010E948C057C010E948C0585
:1008F000FC01C601B4010E94DA0402E3080FC7013B
:10090000B4010E94DA0422E3280FCF01B4010E944F
:10091000DA0442E3480FB1E1AB2EB1E0BB2E85E033
:10092000C82ED12C96E3E92EF12CB3016C1B7D0B64
:1009300084E091E00E948B03E3E1F1E0DF01129794
:100940001C93DF0111971C931083339621E0EB3247
:10095000F207A1F78FE798E321E081509040204013
:10096000E1F700C000002196CC33D1050CF4B0CFE4
:10097000C0E0D0E0ADCF0E940D05A59F900DB49FC3
:10098000900DA49F800D911D11240895AA1BBB1BDF
:1009900051E107C0AA1FBB1FA617B70710F0A61B7F
:1009A000B70B881F991F5A95A9F780959095BC01A0
:1009B000CD01089597FB072E16F4009407D077FD1C
:1009C00009D00E94C60407FC05D03EF4909581959D
:1009D0009F4F0895709561957F4F0895052E97FB61
:1009E0001EF400940E94050557FD07D00E941C05C7
:1009F00007FC03D04EF40C940505509540953095B6
:100A000021953F4F4F4F5F4F08959095809570957A
:100A100061957F4F8F4F9F4F0895A29FB001B39F65
:100A2000C001A39F700D811D1124911DB29F700DF7
:100A3000811D1124911D0895A1E21A2EAA1BBB1B32
:100A4000FD010DC0AA1FBB1FEE1FFF1FA217B3079A
:100A5000E407F50720F0A21BB30BE40BF50B661FB0
:100A6000771F881F991F1A9469F760957095809574
:100A700090959B01AC01BD01CF0108958F929F928B
:100A8000AF92BF92CF92DF92EF92FF92CF93DF931C
:100A9000EC01688179818A819B81611571058105ED
:100AA000910521F464E279ED8BE597E02DE133EFD8
:100AB00041E050E00E94EE0449015A019B01AC0163
:100AC000A7EAB1E40E94BB046B017C01ACEEB4EF79
:100AD000A50194010E949F05C60ED71EE81EF91EAF
:100AE000F7FE06C081E0C81AD108E10880E8F80ADC
:100AF000C882D982EA82FB82C6019F77DF91CF91BB
:100B0000FF90EF90DF90CF90BF90AF909F908F902D
:100B100008950E943E05089580E091E00E943E0500
:100B20000895A0E0B0E08093000190930101A093AC
:100B30000201B09303010895B7FF0C94BB040E9417
:0C0B4000BB04821B930B0895F894FFCFB8
:0A0B4C00010000004E4F4C414E0026
:00000001FF
