:100000000C9434000C9451000C9451000C94510049
:100010000C9451000C9451000C9451000C9451001C
:100020000C9451000C9451000C9451000C9451000C
:100030000C9451000C9451000C9430030C9451001A
:100040000C9451000C9451000C9451000C945100EC
:100050000C9451000C9451000C9451000C945100DC
:100060000C9451000C94510011241FBECFEFD8E026
:10007000DEBFCDBF11E0A0E0B1E001C01D92A63906
:10008000B107E1F711E0A0E0B1E0E2EEF7E002C075
:1000900005900D92A030B107D9F70E947D030C9412
:1000A000EF030C940000FC0170969C0144E050E0CA
:1000B000DF011F971C92DF011E971C92DF011D9725
:1000C0001C92DF011C971C92DF011B971C92DF0121
:1000D0001A971C92DF0119971C92DF0118971C9246
:1000E000DF0117971C92DF0116971C92DF0115970D
:1000F0001C92DF0114971C92DF0113971C92DF0101
:1001000012971C92DF0111971C921082D901AF5BEC
:10011000BF4F1C92D901AE5BBF4F1C924150510999
:1001200070962E5F3F4F4115510511F624E0FC01FA
:100130002083E75BFF4F108208952F923F924F92EA
:100140005F926F927F928F929F92AF92BF92CF9267
:10015000DF92EF92FF920F931F93CF93DF93CDB770
:10016000DEB72A970FB6F894DEBF0FBECDBFDC0115
:100170006C9170E08C01EE24FF24E61AF70AEE0C75
:10018000FF1C4C0118861F827E836D8350E8452E2C
:10019000512C5CC0CB80DC80C20ED31EF601D18016
:1001A000DD20F1F04230510564F46901CA0EDB1E16
:1001B000F20102C0F595E795CA94E2F76F01F101EB
:1001C0000CC0C980DA80C20ED31EF20102C0F595C0
:1001D000E795CA94E2F76F01F301D080DC28D08262
:1001E0002F5F3F4F26173707ACF24F5F5F4F2985D0
:1001F0003A852C5F3F4F3A872987ED81FE81AE0F0C
:10020000BF1F46175707BCF46A01D594C7943D0138
:100210006E0C7F1C7A82698220E030E0E985FA85E5
:10022000E00FF11FFC83EB83CA0CDB1C3601F1E409
:100230006F0E711CAFCF2F8138852F5F3F4F3887EE
:100240002F83005F1F4F32E0830E911CAF81B88572
:10025000A617B7078CF4A0E0B0E01A86198640E034
:1002600050E0AF80B884AA0CBB1CA80EB91E1401C4
:10027000E1E42E0E311CC8CF2A960FB6F894DEBFEB
:100280000FBECDBFDF91CF911F910F91FF90EF90E7
:10029000DF90CF90BF90AF909F908F907F906F90A6
:1002A0005F904F903F902F900895FC01709624E04E
:1002B00030E0DF011F971C92DF011E971C92DF01C7
:1002C0001D971C92DF011C971C92DF011B971C924B
:1002D000DF011A971C92DF0119971C92DF01189712
:1002E0001C92DF0117971C92DF0116971C92DF0109
:1002F00015971C92DF0114971C92DF0113971C9233
:10030000DF0112971C92DF0111971C921082DC0111
:10031000AF5BBF4F1C92DC01AE5BBF4F1C92215004
:100320003109709602962115310519F60895FC01E0
:1003300030816317A0F4431790F4231780F434E05E
:10034000239FF0011124E60FF11DEE0FFF1FEE0FAA
:10035000FF1FE80FF91FE40FF11D81E0818308956D
:100360000895CF92DF92EF92FF920F931F93CF9356
:10037000DF93101611060CF05EC0680191E0C91AF7
:10038000D10893E0D594C7949A95E1F7E1E0F0E0C5
:10039000DF0102C0AA0FBB1F8A95E2F7CD017A2FB9
:1003A0007095EF0102C0CC0FDD1F4A95E2F7AE0158
:1003B0005C2F4095E0E0F0E098B1972398B9DF0119
:1003C000F7FD1796C3E0B595A795CA95E1F7B195E6
:1003D000A195B1097601EA0EFB1EE20EF31EE701BC
:1003E000E880F12CD3E0AA0FBB1FDA95E1F7AE0F3E
:1003F000BF1F02C0F594E794AA95E2F798B1E0FE1A
:1004000002C0952B01C0942398B998B1982B98B944
:100410003196E017F10781F628B181E090E0062ED1
:1004200001C0880F0A94EAF7982F9095922398B903
:1004300098B1982B98B9DF91CF911F910F91FF90B0
:10044000EF90DF90CF9008952F923F924F925F925E
:100450006F927F928F929F92AF92BF92CF92DF92D4
:10046000EF92FF920F931F93CF93DF93CDB7DEB739
:1004700028970FB6F894DEBF0FBECDBFFE013196B0
:1004800088E0DF011D928A95E9F78F01FE0132961F
:100490001F0140E050E0B0E8AB2EB12C4CC067012A
:1004A000C80ED91EA9E04A2EA1E05A2EC40CD51CB4
:1004B000D601DC90DD20E1F06C01223031055CF4E6
:1004C000C60ED71E250102C055944794CA94E2F780
:1004D0006201D8010AC0C80CD91C250102C055947C
:1004E0004794CA94E2F76201D101DC90DC28DC92E7
:1004F00001968430910599F62F5F3F4F6C5F7F4FD7
:100500002430310571F080E090E07301E20EF31EBB
:10051000EE0CFF1CEE0CFF1C4B01B8E08B1A91088F
:10052000BECF4F5F5F4F0E5F1F4F82E0280E311C22
:100530004430510551F060E070E020E030E03A01D5
:10054000660C771C660C771CDECF80E090E0DF0144
:1005500011972C91DC01AA0FBB1FAF5FBE4F2C93EC
:10056000208111962C93019632968430910579F76B
:1005700028960FB6F894DEBF0FBECDBFDF91CF91A6
:100580001F910F91FF90EF90DF90CF90BF90AF90B1
:100590009F908F907F906F905F904F903F902F90A3
:1005A000089580E090E0FC0124E0EE0FFF1F2A9503
:1005B000E1F7E75FFE4F10821182128213821482EC
:1005C000158216821782108611861286138614866B
:1005D00015861686178601968430910521F70895B1
:1005E0000F931F93CF93DF9300D0CDB7DEB70E9458
:1005F0002402E0910001F0E0EE0FFF1FEF5FFE4FDD
:1006000080818983E0910001F0E0EE0FFF1FEF5F32
:10061000FE4F81818A8300E110E09E012F5F3F4FF2
:1006200045E050E063E070E084E090E00E94B101BA
:100630000F900F90DF91CF911F910F910895F89433
:1006400014BC15BC82E080936E0085B5846085BDC6
:1006500084B5826084BD85E187BD16BC7894089519
:100660001F920F920FB60F9211240F931F932F9387
:100670003F934F935F936F937F938F939F93AF932A
:10068000BF93EF93FF931BB82091920130E0220FAC
:10069000331F26573E4F00E110E045E050E063E095
:1006A00070E084E090E00E94B1012091920181E02D
:1006B00090E0022E01C0880F0A94EAF78BB980916E
:1006C00092018F5F8093920180919201843011F4A6
:1006D00010929201FF91EF91BF91AF919F918F91F5
:1006E0007F916F915F914F913F912F911F910F914A
:1006F0000F900FBE0F901F90189587B18FEF87B99D
:1007000089E491E00E94530025E043E064E083E93E
:1007100091E00E94EA038AB18F608AB91BB80E94F7
:100720001F030E94D1020E94F0020E94B00199248E
:1007300093940E94D1020E94240289E491E00E94D5
:10074000550189E491E00E949D0083ED90E30197BB
:10075000F1F700C00000C0E0D0E034C0F601EE0DBB
:10076000FF1DE75FFE4F90820E9424022C2F4E2D2A
:10077000602F89E491E00E94970189E491E00E9452
:100780009D0083ED90E30197F1F700C000009FEF1B
:10079000E91AF90A84E0E816F10401F70F5F1F4F28
:1007A0000430110551F0E12CF12C6501C00ED11E71
:1007B000CC0CDD1CCC0CDD1CD1CF2196C430D10576
:1007C00009F4B7CF00E010E05E01AA0CBB1CAA0C34
:1007D000BB1CE9CFFC016083418322830895F89418
:0207E000FFCF49
:00000001FF
