:100000000C9434000C9451000C9451000C94510049
:100010000C9451000C9451000C9451000C9451001C
:100020000C9451000C9451000C9451000C9451000C
:100030000C9451000C9451000C948F000C945100BE
:100040000C9451000C9451000C9451000C945100EC
:100050000C9451000C9451000C9451000C945100DC
:100060000C9451000C94510011241FBECFEFD8E026
:10007000DEBFCDBF11E0A0E0B1E0E4EEF2E002C0EF
:1000800005900D92AC33B107D9F711E0ACE3B1E0C4
:1000900001C01D92AE33B107E1F70E9411010C942B
:1000A00070010C940000FB014FE050E0481B590B1D
:1000B0009A01220F331F240F351F37FF02C02F5F15
:1000C0003F4F35952795CA0162E070E00E945C01C0
:1000D000D901A85EBE4F892B89F4CF0144E09695E3
:1000E00087954A95E1F78C93D901A75EBE4F8C9115
:1000F0008F70E295E07F8E2B8C9308959C91907F7A
:100100008F2F8F70892B8C931196EC930895E8E1D3
:10011000F1E0119281E0E033F807D9F708951F92DA
:100120000F920FB60F9211242F938F939F93EF93FB
:10013000FF932A9A80913C015F9B0AC05F988823B5
:1001400021F0299A299810923C012D9A2D980FC0E0
:10015000882369F018B8299A299810923C01809157
:100160003D01813011F480E201C080E188B92A9814
:1001700080E090E020913D01FC01211103C0E85E88
:10018000FE4F02C0E050FF4F20812EBD0DB407FE90
:10019000FDCF01968831910569F781E080933C019C
:1001A00080913D018F5F823019F080933D0102C044
:1001B00010923D01FF91EF919F918F912F910F90A0
:1001C0000FBE0F901F901895209A259A549A579A0F
:1001D000219A229A239A28982D985C985F9A2998B8
:1001E0002A9A82E084BD85E085BD83E087BDEEE686
:1001F000F0E080818260808380E58CBD81E08DBDF0
:1002000008955C9A5F9AE0E3F1E081918EBD0DB4B0
:1002100007FEFDCF81E0EC33F807B9F7299A29985A
:1002200008958FEF87B918B890E080E80FB6F8947A
:1002300080936100909361000FBE0E94E4000E94D1
:100240000101789422C00E9487006FEF7FE0CE0109
:100250000E94530083E294EF0197F1F700C0000081
:100260002196CF30D1057CF3CDE0D0E00E9487000D
:100270006FEF7FE0CE010E94530083E294EF01977D
:10028000F1F700C00000219789F7C0E0D0E0E9CF86
:10029000AA1BBB1B51E107C0AA1FBB1FA617B707AC
:1002A00010F0A61BB70B881F991F5A95A9F78095C8
:1002B0009095BC01CD01089597FB072E16F400948C
:1002C00007D077FD09D00E94480107FC05D03EF415
:1002D000909581959F4F0895709561957F4F0895F2
:0402E000F894FFCFC0
:1002E400FFFFFFFFFFFFFFFFFFFFFFFFFFFFFFFF1A
:1002F400FFFFFFFFFFFFFFFF0000000000010020E1
:1003040004008010020040080100200400800FFF58
:0C031400FFFFFFFFFFFFFFFFFFFFFFFFE9
:00000001FF
