:100000000C9434000C9451000C9451000C94510049
:100010000C9451000C9451000C9451000C9451001C
:100020000C9451000C94B9020C9451000C945100A2
:100030000C9451000C9451000C9451000C945100FC
:100040000C9451000C9451000C9421010C9451001B
:100050000C9451000C9451000C9451000C945100DC
:100060000C9451000C94510011241FBECFEFD8E026
:10007000DEBFCDBF11E0A0E0B1E0E4EEF5E002C0EC
:1000800005900D92AC30B107D9F711E0ACE0B1E0CA
:1000900001C01D92AA35B107E1F70E9449010C94F5
:1000A000F0020C9400001092B2001092B400E0EB49
:1000B000F0E0808183628083E1EBF0E08081826008
:1000C0008083539A8AB180638AB98BB18F7C8BB954
:1000D0000895811102C0539801C0539A8093B400CF
:1000E0000895009719F0019739F00895672B11F0E2
:1000F0005C9A08955C980895672B11F05D9A0895B5
:100100005D98089584B18F6784B985B1867885B983
:10011000109285001092840010928900109288003D
:1001200010928B0010928A00E0E8F0E08081816AF2
:100130008083E1E8F0E0808189608083089525B1C3
:10014000009719F00197C9F00895822F877E4130FA
:10015000510539F04230510551F0452B49F4886082
:1001600001C0806170938900609388001DC0886120
:10017000109289001092880017C0822F8F79413029
:10018000510539F04230510551F0452B49F4806258
:1001900001C0806470938B0060938A0005C0806604
:1001A00010928B0010928A0085B90895892B11F066
:1001B000289A0895289808959091C00095FFFCCF43
:1001C0008093C6000895EF92FF920F931F93CF93F1
:1001D000DF938C01EC0109900020E9F72197C81BFF
:1001E000D90B7C01C701801B910B8C179D0734F440
:1001F000F70181917F010E94DC00F4CFDF91CF9164
:100200001F910F91FF90EF9008958091C00087FF9C
:1002100003C08091C600F9CF08950E94E3002FEB40
:1002200087E299E0215080409040E1F700C0000053
:10023000089580E091E00E940D0183E091E00C942C
:100240000D011F920F920FB60F9211242F933F931F
:100250004F935F936F937F938F939F93AF93BF93CE
:10026000EF93FF936091C60084E191E00E94220227
:10027000FF91EF91BF91AF919F918F917F916F917E
:100280005F914F913F912F910F900FBE0F901F9054
:10029000189590E080E80FB6F894809361009093F1
:1002A00061000FBE84E191E00E9411021092C5002E
:1002B00083E38093C40088E98093C10086E0809343
:1002C000C2000E9487020E9482000E94530078941C
:1002D000C0E0D0E08C2F0E94690083ED90E301978D
:1002E000F1F700C000002196C11591E0D90791F700
:1002F000C4E0D0E080E00E94690080E00E94B30288
:100300002FE38DE093E0215080409040E1F700C062
:1003100000008FEF0E94690081E00E94B3022FE38A
:100320008DE093E0215080409040E1F700C0000054
:1003300021972097F9F661E070E080E090E00E945C
:1003400071002FEB87E299E0215080409040E1F767
:1003500000C0000060E070E080E090E00E9471006A
:1003600061E070E081E090E00E9471002FEB87E295
:1003700099E0215080409040E1F700C0000061E02A
:1003800070E080E090E00E9471002FEB87E299E03E
:10039000215080409040E1F700C000000E94190108
:1003A00081E090E00E94D6000E94050161E070E0CB
:1003B00080E090E00E94710061E070E081E090E0F8
:1003C0000E94710080911401833008F184E191E072
:1003D0000E945402D82F84E191E00E945402C82F59
:1003E00084E191E00E945402182F482F50E06C2FB6
:1003F00070E08D2F90E00E949F008D2F0E94DC0006
:100400008C2F0E94DC00812F0E94DC00DBCF2FE9C3
:1004100086E891E0215080409040E1F700C0000064
:10042000D1CFFC01108211821282DC01AD5BBF4F83
:100430001C92DC01AC5BBF4F81E08C93EB5BFF4F08
:1004400010820895FC01DC01AD5BBF4F1C929181CD
:1004500022818081921305C0882319F081E08C935A
:100460000895DF01A20FB11D13966C932F5F2283B5
:100470008F5F8083203409F412822281DF01AB5B1D
:10048000BF4FEC5BFF4F921305C0882319F081E04A
:100490008C9308C01C92921305C0811103C081E0A7
:1004A0008083089510820895FC01DC01AD5BBF4F8D
:1004B0001C92318122819081321306C0911104C0B7
:1004C00082E08C9380E00895DF01A30FB11D1396A5
:1004D0008C913F5F318391509083303409F41182C5
:1004E0003181DF01AB5BBF4FEC5BFF4F321305C0C7
:1004F000992319F091E09C9308C01C92321305C017
:10050000911103C091E09083089510820895109294
:100510000D0110920C0110921301109212018CE740
:1005200090E090930F0180930E0183E990E0909307
:1005300011018093100116BCE0911201F09113019A
:10054000EE0FFF1FE25FFE4F8081918187BD84B572
:10055000826484BD85B5836085BDE0E7F0E080817D
:10056000816080830895882311F0569A08955698E3
:1005700008951F920F920FB60F9211242F938F930D
:100580009F93EF93FF9380910C0190910D01019641
:10059000843191052CF490930D0180930C0116C0C9
:1005A00010920D0110920C01809112019091130193
:1005B00021E082279093130180931201FC01EE0F3A
:1005C000FF1FE25FFE4F8081918187BDFF91EF9118
:1005D0009F918F912F910F900FBE0F901F901895A4
:0405E000F894FFCFBD
:0C05E40041540041542B52454E45570035
:00000001FF
