:100000000C945C000C9486000C946E000C946E00B2
:100010000C946E000C946E000C946E000C946901AC
:100020000C946E000C946E000C946E000C946E0098
:100030000C946E000C946E000C94F8000C946E00FE
:100040000C946E000C946E000C9470000C946E0076
:100050000C946E000C946E000C946E000C946E0068
:100060000C946E000C946E0000003C42423C000078
:10007000000000227E0200000000264AA2220000AA
:1000800000004252522C0000000078087E08000058
:1000900000007252524C000000003C52524C0000D2
:1000A0000000404E5060000000002C52522C000016
:1000B00000003048483E000011241FBECFEFD8E0BA
:1000C000DEBFCDBF12E0A0E0B1E001C01D92A130C3
:1000D000B107E1F70E942B020C948B030C940000F3
:1000E0001F920F920FB60F9211248F938091C6002A
:1000F000809300018F910F900FBE0F901F90189565
:100100008EBD0DB407FEFDCF8EB508951F920F92E0
:100110000FB60F921124EF92FF920F931F932F931C
:100120003F934F935F936F937F938F939F93AF937F
:10013000BF938091010190910201A0910301B091C0
:1001400004014091BD015091BE016091BF017091C9
:10015000C0017C018D01E41AF50A060B170BA801FA
:1001600097018093BD019093BE01A093BF01B0930E
:10017000C001283E03E030074105510510F084E43A
:1001800007C02B3E11E031074105510518F08FEFF4
:1001900087BD16C0213231054105510510F480E1BB
:1001A000F7CFA5E1B2E00E943003725081099109B6
:1001B0002AE096958795779567952A95D1F767BD3B
:1001C00016BC1092060110920501BF91AF919F914C
:1001D0008F917F916F915F914F913F912F911F91DF
:1001E0000F91FF90EF900F900FBE0F901F901895FA
:1001F0001F920F920FB60F9211242F933F934F939C
:100200005F936F937F938F939F93AF93BF93EF937E
:10021000FF9380910501909106019C012C5E3F4F58
:100220002C3331051CF09C01285231093093C40154
:100230002093C3019C01285D3F4F2C3331052CF4E2
:100240003093C2012093C10105C044979093C2012D
:100250008093C1012A98E091C101F091C201E15857
:10026000FE4F80810E948000E091C301F091C401A3
:10027000E95FFE4F84AD0E948000E0910501F0919E
:100280000601E95FFE4F80810E9480002A9A8091DA
:1002900005019091060101968C3391052CF4909301
:1002A00006018093050104C0109206011092050119
:1002B000FF91EF91BF91AF919F918F917F916F913E
:1002C0005F914F913F912F910F900FBE0F901F9014
:1002D00018951F920F920FB60F9211248F939F9330
:1002E000AF93BF938091010190910201A09103010E
:1002F000B09104010196A11DB11D8093010190935D
:100300000201A0930301B0930401BF91AF919F91AB
:100310008F910F900FBE0F901F9018950F931F9302
:10032000CF93DF934330510568F58A3058F5DB01F0
:1003300068E0869FC001112467E070E088599F4FF4
:10034000ECE3E49F8001E59F100D1124ED01AC3337
:10035000B10514F0EC9704C0B7FF02C0ED01EC96B4
:10036000FC01E60FF71FE491C00FD11FC20FD31F8E
:1003700048814E2B48836150710911976F3F4FEFB1
:10038000740721F7DF91CF911F910F9108956F921C
:100390007F928F929F92AF92BF92CF92DF92EF9215
:1003A000FF920F931F93CF93DF93EA0179014C33B0
:1003B000510514F0EC9702C057FDEC963AE0832EFD
:1003C000912CA12CB12CA50194010E943B03390171
:1003D0006A01862F9801A701BE010E948E01B30118
:1003E000C601611571058105910581F09E012850B6
:1003F00031092C3331051CF09E012454310937FD9D
:1004000002C0E901E0CF245C3F4FFBCFDF91CF91E9
:100410001F910F91FF90EF90DF90CF90BF90AF9022
:100420009F908F907F906F90089520E030E040E0A3
:1004300050E0BC01620F731FFB01E40FF51F108237
:100440004F5F5F4F4C335105B9F7245C3F4F243B5E
:10045000310569F7089590E080E80FB6F89480932D
:100460006100909361000FBE8FEF84B915B81092B0
:1004700001011092020110920301109204011092E6
:10048000060110920501E5ECF1E0119222E0E13065
:10049000F207D9F71092BC011092BB01EFE7F1E02F
:1004A000A3E4B1E0C7E0D1E019921D92119281E07E
:1004B000EB3BF807C9F7AFE7B1E0C7E0D1E0E3E411
:1004C000F1E080E090E055E54AEA65E07AE010EF7F
:1004D00000E5893191056CF4688370831C93009763
:1004E00051F09C0123703327232B29F440830C9374
:1004F00002C05883408301963196219611968C3321
:10050000910539F7C9E3D1E0A5E7B1E0E1EBF1E00E
:1005100019921D92119291E0EB3BF907C9F784B54E
:10052000826084BD85B5836085BD84E487BD80918C
:100530006E00826080936E008091B0008260809334
:10054000B0008091B10082608093B10089EF809308
:10055000B300809170008260809370008091690088
:10056000826080936900E89A8CB580658CBD8DB5FA
:1005700081608DBD85B1837D85B91092C50083E30F
:100580008093C40088E98093C10086E08093C20014
:1005900078942FEF89E698E1215080409040E1F770
:1005A00000C00000C0900101D0900201E090030162
:1005B000F090040187E091E00E941502E7E0F1E08D
:1005C00080818160819321E0E334F207C9F707E07D
:1005D00011E020E030E04BEF5FEFC701B6010E9471
:1005E000C70121E030E04BEF5FEFC701B6010E9489
:1005F000C70122E030E04BEF5FEFC701B6010E9478
:10060000C7018FEF91E12AE7815090402040E1F748
:1006100000C00000CFEF87E091E00E94150220911A
:1006200000018FEF820F833088F48CE3289F9001C4
:100630001124295F3E4F80E090E0F901E80FF91F97
:10064000FC97C08301968C339105B9F79FE728E3A7
:1006500081E0915020408040E1F700C00000DBCFF6
:100660000E945A03A59F900DB49F900DA49F800DEA
:10067000911D11240895052E97FB1EF400940E94ED
:10068000520357FD07D00E94690307FC03D04EF4C4
:100690000C94520350954095309521953F4F4F4F04
:1006A0005F4F089590958095709561957F4F8F4F1E
:1006B0009F4F0895A29FB001B39FC001A39F700DEB
:1006C000811D1124911DB29F700D811D1124911D5A
:1006D0000895A1E21A2EAA1BBB1BFD010DC0AA1F83
:1006E000BB1FEE1FFF1FA217B307E407F50720F09B
:1006F000A21BB30BE40BF50B661F771F881F991F16
:100700001A9469F760957095809590959B01AC015E
:0A071000BD01CF010895F894FFCF5A
:00000001FF
