:100000000C9434000C9470000C9446000C94460040
:100010000C9446000C9446000C9446000C941A0173
:100020000C9446000C9446000C9446000C94460038
:100030000C9446000C9446000C94EF000C9446007F
:100040000C9446000C9446000C9446000C94460018
:100050000C9446000C9446000C9446000C94460008
:100060000C9446000C94460011241FBECFEFD8E03C
:10007000DEBFCDBF11E0A0E0B1E001C01D92AE3403
:10008000B107E1F70E9459010C9457030C9400004A
:1000900029E1AC01249FC001259F900D112460E34C
:1000A00070E00E940A0261507109882777FD8095EF
:1000B000982F0E94CB0220E030E040E05FE30E94F6
:1000C00034020E9498026F3F710509F02CF46630EB
:1000D000710524F0862F08958FEF089585E0089527
:1000E0001F920F920FB60F921124AF92BF92CF9230
:1000F000DF92EF92FF920F931F932F933F934F93B3
:100100005F936F937F938F939F93AF93BF93EF937F
:10011000FF93209100013091010140910201509123
:100120000301609104017091050180910601909195
:100130000701A0900A01B0900B01C0900C01D09073
:100140000D01E0900E01F0900F010091100110914F
:1001500011010E942A02F22FE32F20930A0130930B
:100160000B0140930C0150930D0160930E017093AD
:100170000F0180931001909311012539310541053C
:100180005105610571058105910519F010F084E4B0
:1001900004C08F2F9E2F0E94480087BD16BC10926E
:1001A0000901109208018091120185B9FF91EF9128
:1001B000BF91AF919F918F917F916F915F914F917F
:1001C0003F912F911F910F91FF90EF90DF90CF9073
:1001D000BF90AF900F900FBE0F901F9018951F9279
:1001E0000F920FB60F9211248F939F93EF93FF936B
:1001F000E0910801F0910901EE5EFE4F808185B922
:10020000809108019091090101968C3391052CF49D
:10021000909309018093080104C010920901109283
:100220000801FF91EF919F918F910F900FBE0F905A
:100230001F9018951F920F920FB60F9211242F93B3
:100240003F934F935F936F937F938F939F93AF935E
:100250002091000130910101409102015091030170
:100260006091040170910501809106019091070150
:10027000A1E00E941E0220930001309301014093EF
:100280000201509303016093040170930501809370
:10029000060190930701AF919F918F917F916F918C
:1002A0005F914F913F912F910F900FBE0F901F9034
:1002B00018958FEF84B915B81092000110920101C2
:1002C0001092020110920301109204011092050194
:1002D0001092060110920701109209011092080174
:1002E000E2E1F1E0119221E0EE34F207D9F784B5B2
:1002F000826084BD85B5826085BD84E487BD8091C0
:100300006E00826080936E008091B0008260809366
:10031000B0008091B10081608093B10089EF80933B
:10032000B3008091700082608093700080916900BA
:10033000826080936900E89A7894809100018093AC
:100340000A018091010180930B0180910201809349
:100350000C018091030180930D0180910401809331
:100360000E018091050180930F0180910601809319
:100370001001809107018093110180E090E0C1E0BD
:1003800063E07FE0AFE3BFEFE2E1F1E0AC014251B7
:1003900051409A012E0F3F1F27703327DC2F01C0D9
:1003A000DD0F2A95EAF7D19321E0EE34F20789F7C1
:1003B00060934B0170934C01A0934D01B0931201D7
:1003C000A093130170931401609315013FE946E86F
:1003D000D1E031504040D040E1F700C0000001962C
:1003E000883091058CF280E090E0CECFAA1BBB1B39
:1003F00051E107C0AA1FBB1FA617B70710F0A61B25
:10040000B70B881F991F5A95A9F780959095BC0145
:10041000CD01089597FB072E16F4009407D077FDC1
:1004200009D00E94F60107FC05D03EF49095819515
:100430009F4F0895709561957F4F08950024A7FD03
:1004400000942A0F301D401D501D601D701D801D21
:10045000901D08952A193B094C095D096E097F0911
:10046000800B910B08955058BB27AA270ED0E5C0EA
:10047000D6D030F0DBD020F031F49F3F11F41EF4E1
:10048000CBC00EF4E095E7FBC1C0E92FE7D080F3C5
:10049000BA17620773078407950718F071F49EF581
:1004A000FFC00EF4E0950B2EBA2FA02D0B01B90161
:1004B00090010C01CA01A0011124FF27591B99F0DA
:1004C000593F50F4503E68F11A16F040A22F232FE6
:1004D000342F4427585FF3CF469537952795A79536
:1004E000F0405395C9F77EF41F16BA0B620B730BDD
:1004F000840BBAF09150A1F0FF0FBB1F661F771F4E
:10050000881FC2F70EC0BA0F621F731F841F48F402
:10051000879577956795B795F7959E3F08F0B3CF88
:100520009395880F08F09927EE0F97958795089572
:1005300004D06894B111B5C0089598D088F09F5741
:1005400090F0B92F9927B751A0F0D1F0660F771F1F
:10055000881F991F1AF0BA95C9F712C0B13081F0FF
:100560009FD0B1E008959CC0672F782F8827B85F8F
:1005700039F0B93FCCF3869577956795B395D9F760
:100580003EF490958095709561957F4F8F4F9F4F6A
:100590000895E89409C097FB3EF490958095709576
:1005A00061957F4F8F4F9F4F9923A9F0F92F96E9BF
:1005B000BB279395F695879577956795B795F11134
:1005C000F8CFFAF4BB0F11F460FF1BC06F5F7F4FD1
:1005D0008F4F9F4F16C0882311F096E911C07723E3
:1005E00021F09EE8872F762F05C0662371F096E8EC
:1005F000862F70E060E02AF09A95660F771F881FBB
:10060000DAF7880F9695879597F9089597F99F6778
:1006100080E870E060E008959FEF80EC089500248A
:100620000A941616170618060906089500240A9457
:1006300012161306140605060895092E0394000CDD
:1006400011F4882352F0BB0F40F4BF2B11F460FF6C
:1006500004C06F5F7F4F8F4F9F4F089557FD905895
:10066000440F551F59F05F3F71F04795880F97FB76
:10067000991F61F09F3F79F0879508951216130630
:100680001406551FF2CF4695F1DF08C0161617065F
:100690001806991FF1CF8695710561050894089594
:1006A000E894BB2766277727CB0197F90895F8943C
:0206B000FFCF7A
:00000001FF
