:100000000C9434000C9451000C9451000C94510049
:100010000C9451000C9451000C9451000C9451001C
:100020000C9451000C9451000C9451000C9451000C
:100030000C9451000C9451000C9437130C94510003
:100040000C9451000C9451000C94ED120C9451003E
:100050000C9451000C9451000C9451000C945100DC
:100060000C9451000C94510011241FBECFEFD8E026
:10007000DEBFCDBF12E0A0E0B1E0E8ECF5E302C0E6
:1000800005900D92A636B107D9F714E0A6E6B2E0C6
:1000900001C01D92A433B107E1F70E946F130C94C5
:1000A000E21A0C940000FC0186E090E092838183C8
:1000B0001782168227E030E034872387318B208B2C
:1000C00025E030E0368B258B938F828F86E480830A
:1000D0008CE4858382E4828782E5878785E5848B4B
:1000E00084E4818F14821382118610861686158609
:1000F000138A128A108E178A158E148E178E168EFA
:1001000081E090E091A380A342E050E053A342A39A
:1001100043E050E055A344A344E050E057A346A376
:1001200031A720A7269844B19C01068002C0220F67
:10013000331F0A94E2F72095242324B944B19C018B
:10014000038402C0220F331F0A94E2F72095242370
:1001500024B94AB19C01008802C0220F331F0A94BF
:10016000E2F7209524232AB94AB19C01058802C0F0
:10017000220F331F0A94E2F7209524232AB94AB1AB
:100180009C01028C02C0220F331F0A94E2F72095D3
:1001900024232AB945B19C01018002C0220F331FDC
:1001A0000A94E2F7422B45B945B19C01068002C092
:1001B000220F331F0A94E2F7422B45B945B19C0147
:1001C000038402C0220F331F0A94E2F7422B45B981
:1001D0004BB19C01008802C0220F331F0A94E2F742
:1001E000422B4BB94BB19C01058802C0220F331F33
:1001F0000A94E2F7422B4BB92BB1028C02C0880F54
:10020000991F0A94E2F7282B2BB90895FC01663454
:1002100071F030F46234E9F0643409F042C034C063
:10022000623501F1653539F16C34D9F509C023B176
:1002300030E0018002C0359527950A94E2F72CC082
:1002400023B130E0068002C0359527950A94E2F785
:1002500023C023B130E0038402C0359527950A946A
:10026000E2F71AC029B130E0008802C03595279521
:100270000A94E2F711C029B130E0058802C0359533
:1002800027950A94E2F708C029B130E0028C02C039
:10029000359527950A94E2F72170332781E02827C6
:1002A00002C020E030E0C90108951F93CF93DF938F
:1002B000EC0166E40E940601892B51F081E090E098
:1002C0000E8C02C0880F991F0A94E2F7182F01C004
:1002D00010E06CE4CE010E940601892B49F021E078
:1002E00030E008A002C0220F331F0A94E2F7122B5D
:1002F00062E4CE010E940601892B49F021E030E042
:100300000AA002C0220F331F0A94E2F7122B62E503
:10031000CE010E940601892B49F021E030E00CA0BB
:1003200002C0220F331F0A94E2F7122B65E5CE01BB
:100330000E940601892B49F021E030E00EA002C0A6
:10034000220F331F0A94E2F7122B64E4CE010E94BD
:100350000601892B49F021E030E008A402C0220FF9
:10036000331F0A94E2F7122B812FDF91CF911F9157
:100370000895982F91549A3160F490E08154910936
:1003800046E0489F9001499F300D11242C5F3E4F5D
:1003900011C0982F90539A3058F490E0C09746E0DF
:1003A000489F9001499F300D112420563E4F02C0B6
:1003B00020E030E0C901089530E050E070E003969D
:1003C0000C94ED196F927F928F929F92AF92BF9291
:1003D000CF92DF92EF92FF920F931F93CF93DF9311
:1003E000EC01722E79836883FA0101900020E9F70D
:1003F0003197E41BF50BDC01AE59BC4FE13610F42C
:10040000EC9302C080E68C936A01E12CF12C5E0132
:100410008EE9A81A8CEFB80A29E0622E1CC0F601FA
:1004200081916F010E94B9014C016E9C80016F9C0B
:10043000100D11240E5F1F4F0C0F1D1F20E040E018
:1004400060E0C8010E94DC01F80170829282818222
:10045000FFEFEF1AFF0AF501808190E0E816F90638
:10046000F4F2FE01ED59FC4F8FEF8083FE01EC5951
:10047000FC4F8083CB59DC4F1882DF91CF911F91C5
:100480000F91FF90EF90DF90CF90BF90AF909F9033
:100490008F907F906F900895CF93DF93CDB7DEB7A5
:1004A000E4970FB6F894DEBF0FBECDBF98E2ECED37
:1004B000F1E0DE01119601900D929A95E1F78431F9
:1004C000A0F02FEF3FEF40E050E060E070E0CE01A1
:1004D0008F960E94ED1986E0FE01BF96DE01999687
:1004E00001900D928A95E1F710C0FE013196E80F58
:1004F000F11DE80FF11D4181608120E030E050E006
:1005000070E0CE0189960E94ED1986E0FE01B99651
:10051000DE019F9601900D928A95E1F72FA538A9EB
:1005200049A95AA96BA97CA980E090E0E4960FB68E
:10053000F894DEBF0FBECDBFDF91CF9108958E59E5
:100540009C4FFC012081F6E02F9F900111242C5E2E
:100550003F4FC90108952F923F924F925F926F9241
:100560007F928F929F92AF92BF92CF92DF92EF9243
:10057000FF920F931F93CF93DF93CDB7DEB76097B2
:100580000FB6F894DEBF0FBECDBF2C015B017B011F
:10059000612C712C812C912C9B012E593C4F388B56
:1005A0002F8715E085C0D70113968D919C911497E4
:1005B000892B51F4BFEF8B1A9B0AE9E0EE0EF11C78
:1005C000F6E06F0E711C74C0C12CD12C9601260D63
:1005D000371DD5018D919C91821B930B019797FD3F
:1005E0006FC0843191050CF05AC09C0163E03595D1
:1005F00027956A95E1F72A0D3B1DF901ED59FC4F4E
:10060000208130E0AC0147705527E0E8F0E002C0FF
:10061000F595E7954A95E2F72E233F23232B09F41E
:100620003EC00E944C022F83388749875A876B87C8
:100630007C87FE013796DE01119686E001900D92CF
:100640008A95E1F78D819E81892B49F520E230E082
:100650000C2C02C0359527950A94E2F73E872D872A
:1006600055E0252E312CD7011396ED91FC9114976E
:10067000E20DF31D808190E0ED85FE858E239F23A2
:10068000892B49F0212F221912960C914B816981F7
:10069000C2010E940607F1E02F1A310820F73FEF50
:1006A000C31AD30A66E0C616D10409F08FCF82CFF1
:1006B000AF85B8898C9190E0881699060CF473CFB9
:1006C00060960FB6F894DEBF0FBECDBFDF91CF911D
:1006D0001F910F91FF90EF90DF90CF90BF90AF9060
:1006E0009F908F907F906F905F904F903F902F9052
:1006F000089507C0E9EFF0E03197F1F700C000007E
:1007000001970097B9F70895CF93DF939C0140E0DC
:1007100050E0A4E259C0EF0125971882EF01249719
:100720001882EF0123971882EF0122971882EF01B8
:1007300021971882108261507109369661157105F2
:1007400051F7F901E752FF4F1082F901E652FF4FCE
:100750001082F901E552FF4F1082F901E452FF4F78
:100760001082F901E352FF4F1082F901E252FF4F6C
:100770001082F901E152FF4F1082F901E052FF4F60
:100780001082F901EF51FF4F1082F901EE51FF4F36
:100790001082F901ED51FF4F1082F901EC51FF4F2A
:1007A0001082F901EB51FF4F1082F901EA51FF4F1E
:1007B0001082F901E951FF4F10824F5F5F4F215FB7
:1007C0003F4F4630510559F0A49FF001A59FF00D11
:1007D00011243696E80FF91F66E070E09CCF26E002
:1007E000FC012083ED5CFE4F1082DF91CF910895D4
:1007F000E1E0F0E001C0EE0F4A95EAF7680F791FDB
:1008000082E090E030E0A901082E02C0559547959E
:100810000A94E2F740FF04C0DB014C914E2B4C934D
:1008200001976B5F7F4F8F3FBFEF9B0761F7089585
:100830002F923F924F925F926F927F928F929F92F0
:10084000AF92BF92CF92DF92EF92FF920F931F93DE
:10085000CF93DF93CDB7DEB7C556D1090FB6F89465
:10086000DEBF0FBECDBF6C01AE01415F5F4FA396EF
:100870005FAF4EAFA3973C016F969FAF8EAF6F9760
:100880008A01A12CB12C3FE05CC0A596EEADFFAD76
:10089000A597E80DF91D2181A701B101A1968EADA3
:1008A0009FADA197A6963FAFA6970E94F80351E08F
:1008B000E51AF108A6963FADA697F7FE06C06FEFC2
:1008C000261A360A97E0E92EF12C7FEF871A970A4D
:1008D0000CC0812C912C6F968EAD9FAD6F97840DBF
:1008E000951DA5969FAF8EAFA597F601808190E0EC
:1008F0008816990654F26D964EAD5FAD6D974F5FB9
:100900005F4F6D965FAF4EAF6D9756E0450E511C31
:10091000F601808190E06D964EAD5FAD6D97481702
:100920005907BCF25FEFA51AB50A015F1F4F6F961A
:100930006EAD7FAD6F976C5D7F4F6F967FAF6EAF83
:100940006F97F601808190E0A816B906F4F1AE0128
:100950004E5F5F4F9E012D5F3F4FDE011496BE013B
:100960006B5F7F4FA5967FAF6EAFA5977E0176E058
:10097000E70EF11C6E0187E0C80ED11C5E0198E005
:10098000A90EB11C4E01E9E08E0E911CBE01665FFE
:100990007F4F6D967FAF6EAF6D972E017BE0470E58
:1009A000511C1E018CE0280E311CFE013D966F96F5
:1009B000FFAFEEAF6F97BE01625F7F4FA1967FAF33
:1009C0006EAFA19780E090E047C0F8013E9710829B
:1009D000F8013D971082F8013C971082F8013B978F
:1009E0001082F8013A971082F80139971082F801C5
:1009F00038971082F80137971082F80136971082E5
:100A0000F80135971082F80134971082F801339776
:100A10001082F80132971082F80131971082F801A4
:100A20001082412C512C212C312C83E0E82EF12C0A
:100A30006D961FAE1EAE6D973A9DA0013B9D500D69
:100A4000112461E070E06C0F7D1F640F751FA1968B
:100A50007FAF6EAFA1975CCFB30167527F4F01E0CC
:100A600010E00C0F1D1F080F191FF8011081FB016A
:100A70001083B30166527F4FFA011081FB0110838E
:100A8000B30165527F4FF9011081FB011083B3015F
:100A900064527F4F1C91FB011083B30163527F4F5F
:100AA000A596EEADFFADA5971081FB011083B301B4
:100AB00062527F4FF7011081FB011083B301615235
:100AC0007F4FF6011081FB011083B30160527F4F0D
:100AD000F5011081FB011083B3016F517F4FF401C9
:100AE0001081FB011083B3016E517F4F6D96EEAD07
:100AF000FFAD6D971081FB011083B3016D517F4FE6
:100B0000F2011081FB011083B3016C517F4FF101A1
:100B10001081FB011083B3016B517F4F6F96EEADD7
:100B2000FFAD6F971081FB011083B3016A517F4FB6
:100B3000A196EEADFFADA1971081FB011083B3012B
:100B400069517F4FA396EEADFFADA3971081FB01D6
:100B500010830F96FFE06F0E711C415F5F4F215FA6
:100B60003F4F1F96A5966EAD7FADA597615F7F4FF6
:100B7000A5967FAF6EAFA5977FE0E70EF11CEFE083
:100B8000CE0ED11CFFE0AF0EB11C6FE0860E911CA3
:100B90006D96EEADFFAD6D973F966D96FFAFEEAFE4
:100BA0006D97FFE04F0E511C6FE0260E311C6F96C3
:100BB000EEADFFAD6F973F966F96FFAFEEAF6F97BD
:100BC000A1966EAD7FADA197615F7F4FA1967FAF7C
:100BD0006EAFA197A396EEADFFADA3973F96A396F8
:100BE000FFAFEEAFA3978A35910509F035CFCB590A
:100BF000DF4F0FB6F894DEBF0FBECDBFDF91CF91B0
:100C00001F910F91FF90EF90DF90CF90BF90AF902A
:100C10009F908F907F906F905F904F903F902F901C
:100C2000089520E030E064E21BC0DF0115971C92BC
:100C3000DF0114971C92DF0113971C92DF011297BA
:100C40001C92DF0111971C92108241505109369677
:100C50004115510551F72F5F3F4F2630310559F0AF
:100C6000629FF001639FF00D11243696E80FF91F83
:100C700046E050E0DACF0895CF92DF92FF920F93D3
:100C80001F93CF93DF93EC01488150E060E070E068
:100C9000FF24F3941DC08601020F131FE801F9829F
:100CA0002F5F3F4F24173507B4F311963696A417DC
:100CB000B5072CF00AC0E0E0F0E0A0E0B0E020E0F2
:100CC00030E06F01C80ED91EE6CF6F5F7F4F84966C
:100CD0006417750784F3DF91CF911F910F91FF90F7
:100CE000DF90CF900895CF92DF92EF92FF920F9313
:100CF0001F93CF93DF93FC01408150E0C12CD12C96
:100D00001EC07801E20EF31EF70161832F5F3F4F93
:100D100024173507B4F321961696C417D5072CF07F
:100D20000AC0A0E0B0E0C0E0D0E020E030E08D01FB
:100D3000080F191FE6CFFFEFCF1ADF0A8496C416FB
:100D4000D5067CF3DF91CF911F910F91FF90EF902B
:100D5000DF90CF9008954F925F926F927F928F9223
:100D60009F92AF92BF92CF92DF92EF92FF920F933A
:100D70001F93CF93DF93EC016C01E12CF12C27E062
:100D8000422E512C2DC00E94751AF401E00FF11F64
:100D9000B2010E94101A8F5F81830F5F1F4F05C041
:100DA00000E010E043018C0C9D1C888190E0081746
:100DB00019074CF38FEFA81AB80A86E0680E711C69
:100DC00004C0612C712CA12CB12C888190E0A81654
:100DD000B90634F38FEFE81AF80A84E2C80ED11C82
:100DE000888190E0E816F90664F3DF91CF911F91B6
:100DF0000F91FF90EF90DF90CF90BF90AF909F90BA
:100E00008F907F906F905F904F9008950F93FC01AB
:100E10003081631790F4431780F4231770F436E0A1
:100E2000639FF001112434E2239FE00DF11D112492
:100E3000E80FF91FE40FF11D01830F9108952F9220
:100E40003F924F925F926F927F928F929F92AF925A
:100E5000BF92CF92DF92EF92FF920F931F93CF93A7
:100E6000DF9300D000D01F92CDB7DEB79D838C8377
:100E70006983B42EC601801B910BA701421B530B43
:100E800057FF03C051954195510997FF03C09195B4
:100E900081959109481759070CF457C0E216F306DB
:100EA00054F4902F812F8601C92ED82E922F832F94
:100EB0009701E92EF82E2701421A530A3601601ACB
:100EC000710A19016801812C912C222733272419DA
:100ED00035093B832A8335C03981313041F018F020
:100EE000323091F409C00A2D2C2D4B2D08C00A2D4B
:100EF0002C2D422D6B2D04C00A2D2B2D4C2D622D37
:100F00008C819D810E940607860C971CC401880F66
:100F1000991F77FC09C08415950584F08FEFC81AD6
:100F2000D80A841895080AC0EA81FB81E817F907F6
:100F30002CF0F1E0CF1AD108840C951C2FEF221A67
:100F4000320AE214F30444F656C0C016D10654F433
:100F5000902F812F8601C92ED82E922F832F970193
:100F6000E92EF82E1701221A330A2601401A510AD7
:100F700038017901812C912C8827992784199509AA
:100F80009B838A8335C09981913041F018F092306B
:100F900091F409C00A2D262D4B2D08C00A2D262DAF
:100FA0004E2D6B2D04C00A2D2B2D462D6E2D8C81C0
:100FB0009D810E940607820C931CC401880F991F13
:100FC00037FC09C08415950584F0EFEFEE1AFE0A90
:100FD000841895080AC02A813B81281739072CF00C
:100FE00031E0E31AF108840C951C8FEF681A780A37
:100FF000C614D70444F680E090E00F900F900F9055
:101000000F900F90DF91CF911F910F91FF90EF9074
:10101000DF90CF90BF90AF909F908F907F906F9018
:101020005F904F903F902F900895BF92CF92DF92A4
:10103000EF92FF920F931F93CF93DF93EC01142F46
:10104000B22E6623D1F0613009F053C034C00B2DAD
:101050002C2D412F6E2DCE010E9406078FEFC81A4E
:10106000D80A02C0C12CD12C888190E0C816D906BC
:1010700074F38FEFE81AF80A02C0E12CF12C888192
:1010800090E0E816F90674F33BC00B2D2C2D4E2D85
:10109000612FCE010E9406078FEFC81AD80A02C03E
:1010A000C12CD12C888190E0C816D90674F38FEF3B
:1010B000E81AF80A02C0E12CF12C888190E0E816C9
:1010C000F90674F31DC00B2D212F4C2D6E2DCE0172
:1010D0000E9406078FEFC81AD80A02C0C12CD12C73
:1010E000888190E0C816D90674F38FEFE81AF80AE1
:1010F00002C0E12CF12C888190E0E816F90674F327
:10110000DF91CF911F910F91FF90EF90DF90CF90E3
:10111000BF9008952F923F924F925F926F927F926D
:101120008F929F92AF92BF92CF92DF92EF92FF92F7
:101130000F931F93CF93DF93EC01FB01DA01122F82
:10114000E080F1808D919C9111978E159F051CF484
:1011500027017C0101C02C01C280D38012968D91A1
:101160009C9113978C159D051CF436016C0101C0F0
:101170003C01A480B58014968D919C9115978A1599
:101180009B051CF415015C0101C01C0147011CC03A
:10119000012F2A2D4C2D682DCE010E9406072A2DE5
:1011A000462D682DCE010E940607222D4C2D682D5C
:1011B000CE010E940607222D462D682DCE010E94E9
:1011C00006078FEF881A980A481459040CF746014D
:1011D0001CC0012F2A2D482D6E2DCE010E9406071E
:1011E0002A2D482D642DCE010E940607222D482D60
:1011F0006E2DCE010E940607222D482D642DCE01B2
:101200000E9406078FEF881A980A681479040CF771
:101210001CC0012F2A2D4C2D6E2DCE010E940607D9
:101220002A2D462D6E2DCE010E9406072A2D4C2D0B
:10123000642DCE010E9406072A2D462D642DCE0175
:101240000E9406078FEFA81AB80A2A143B040CF76D
:10125000DF91CF911F910F91FF90EF90DF90CF9092
:10126000BF90AF909F908F907F906F905F904F90C6
:101270003F902F9008958F929F92AF92BF92CF92FE
:10128000DF92EF92FF920F931F93CF93DF93EC01C6
:10129000142F7901662371F1613009F0EFC08CC021
:1012A000CE010E941106C12CD12C15C0012F282D72
:1012B0004A2D6C2DCE010E9406078FEF881A980ADE
:1012C00002C0812C912C888190E08816990674F3D5
:1012D0008FEFC81AD80A888190E0C816D9068CF317
:1012E000CE010E941804C7010E9479038FEFA81A4B
:1012F000B80A02C0A12CB12CC880D12CAC14BD04FA
:101300007CF282E0C81AD10829C0CE010E941106E1
:10131000A12CB12C15C0012F282D4C2D6A2DCE01EA
:101320000E9406078FEF881A980A02C0812C912C20
:10133000888190E08816990674F38FEFA81AB80A8E
:10134000888190E0A816B9068CF3CE010E9418049B
:10135000C7010E94790381E0C81AD1081C141D043A
:10136000A4F2C3C0CE010E941106C12CD12C15C01D
:10137000012F282D4C2D6A2DCE010E9406078FEFDC
:10138000881A980A02C0812C912C888190E08816D6
:10139000990674F38FEFC81AD80A888190E0C816AE
:1013A000D9068CF3CE010E941804C7010E9479036C
:1013B0008FEFA81AB80A02C0A12CB12CC880D12C7A
:1013C000AC14BD047CF282E0C81AD10829C0CE0159
:1013D0000E941106A12CB12C15C0012F282D4A2DD9
:1013E0006C2DCE010E9406078FEF881A980A02C062
:1013F000812C912C888190E08816990674F38FEFE8
:10140000A81AB80A888190E0A816B9068CF3CE0114
:101410000E941804C7010E94790381E0C81AD1080C
:101420001C141D04A4F261C0CE010E941106C12C3F
:10143000D12C15C0012F2A2D482D6C2DCE010E94D4
:1014400006078FEF881A980A02C0812C912C888198
:1014500090E08816990674F38FEFC81AD80A88812D
:1014600090E0C816D9068CF3CE010E941804C7017B
:101470000E9479038FEFA81AB80A02C0A12CB12CE0
:10148000C880D12CAC14BD047CF282E0C81AD1080B
:1014900029C0CE010E941106A12CB12C15C0012F2C
:1014A0002C2D482D6A2DCE010E9406078FEF881A39
:1014B000980A02C0812C912C888190E088169906A8
:1014C00074F38FEFA81AB80A888190E0A816B906BD
:1014D0008CF3CE010E941804C7010E94790381E0B9
:1014E000C81AD1081C141D04A4F2DF91CF911F91DA
:1014F0000F91FF90EF90DF90CF90BF90AF909F90B3
:101500008F9008952F923F924F925F926F927F92A9
:101510008F929F92AF92BF92CF92DF92EF92FF9203
:101520000F931F93CF93DF9300D000D0CDB7DEB7DA
:101530009C838B83B62E342E222E3983812C912CC2
:1015400075E0672E712C8B819C810E94110650E002
:10155000230148185908A32C620165E0E62EF12CFE
:10156000840120E030E0452F6B2D8B819C815A83D4
:101570000E941F075A815F5F563069F78B819C81FB
:101580000E941804822D99810E9479038FEF881A96
:10159000980AE6E08E169104B1F688248394912C83
:1015A00045E0642E712C8B819C810E94110650E0D5
:1015B000230148185908A32CC12CD12C720105E035
:1015C00010E09401452F6B2D8B819C815A830E94E2
:1015D0001F075A815F5F563071F78B819C810E9493
:1015E0001804822D99810E947903FFEF8F1A9F0AB8
:1015F00085E088169104B9F60F900F900F900F9028
:10160000DF91CF911F910F91FF90EF90DF90CF90DE
:10161000BF90AF909F908F907F906F905F904F9012
:101620003F902F9008952F923F924F925F926F922A
:101630007F928F929F92AF92BF92CF92DF92EF9262
:10164000FF920F931F93CF93DF93CDB7DEB7CF58A1
:10165000D1090FB6F894DEBF0FBECDBF4C01162FD7
:10166000742EC90137FD019695958795C257DF4FB6
:101670008883CE58D040C157DF4F9883CF58D04091
:101680000E94751A06E0E02EF12CB7010E94101A94
:101690005C010E94751AB7010E94101A6C010E9429
:1016A000751AB7010E94101A7C01082F2C2D4A2DA3
:1016B00064E1CE0101960E948B18C357DF4F288149
:1016C000CD58D04030E0FE01E758FF4F80E090E079
:1016D00002C07192019682179307DCF3412C512CC2
:1016E000212E312C80C0A5E06A2E712C0E94751A23
:1016F00066E070E00E94101A992782309105A9F0E7
:101700002CF4009751F0019721F50BC0843091051E
:10171000C9F0A4F00597E9F419C081E0A81AB1084E
:1017200018C086010F5F1F4F15C08FEFA81AB80AA7
:10173000860186E0A816B10481F00CC08601015034
:10174000110908C08FEFE81AF80A03C081E0E81A0F
:10175000F1088601B7FC04C006C0A12CB12C03C05F
:10176000F5E0AF2EB12C063011051CF417FD04C0B6
:1017700005C000E010E002C005E010E086E0E816D9
:10178000F1041CF4F7FC04C006C0E12CF12C03C0EA
:10179000E5E0EE2EF12CC4010E9411062E2D402F03
:1017A0006A2DCE0101960E94CD18BE016F5F7F4F5A
:1017B000C4010E941B19C4010E941804C257DF4FC4
:1017C0008881CE58D040C157DF4F9881CF58D04044
:1017D0000E94790381E0681A7108680109F086CFD8
:1017E0008FEF481A580A421453040CF47CCFC157A7
:1017F000DF4F0FB6F894DEBF0FBECDBFDF91CF91A4
:101800001F910F91FF90EF90DF90CF90BF90AF901E
:101810009F908F907F906F905F904F903F902F9010
:1018200008954F925F926F927F928F929F92AF92A4
:10183000BF92CF92DF92EF92FF920F931F93CF93BD
:10184000DF93EC017B01642E722E58010E94110679
:10185000C12CD12C86E0882E912C15E066C0C114D5
:10186000D10439F1F6013197CF01B4010E94101A69
:101870004AEF46039001479F300D11242E0F3F1F62
:10188000662021F081E0681208C003C0072D40E007
:101890000AC0072D462F60E006C0812F821B072D4E
:1018A00020E0462F682FCE010E940607CE010E943D
:1018B000180420E045E0662DCE010E941508412C59
:1018C0002FC021E0E21AF108662021F041E0641205
:1018D0000BC005C0072D252D45E0642D0AC0072D3E
:1018E000252D442D65E005C0612F6519072D25E0E4
:1018F000442DCE010E940607CE010E941804C501A6
:101900000E94790385E0581621F05394E114F10404
:10191000C1F625E0421631F04394E114F10411F0D0
:10192000512CCFCF4FEFC41AD40AE114F10409F0BF
:1019300096CF8FE0282F2A9DC0012B9D900D11245A
:10194000DF91CF911F910F91FF90EF90DF90CF909B
:10195000BF90AF909F908F907F906F905F904F90CF
:101960000C9479032F923F924F925F926F927F92E5
:101970008F929F92AF92BF92CF92DF92EF92FF929F
:101980000F931F93CF93DF93CDB7DEB72D970FB68D
:10199000F894DEBF0FBECDBF8C017B01342E590100
:1019A0004E0187E0880E911C20E030E040E050E0DE
:1019B00060E070E0C4010E94ED1925E030E045E0F0
:1019C00050E065E070E044244394512C4C0E5D1EC1
:1019D000C2010E94ED198AE08A9D30018B9D700C36
:1019E0001124C12CD12C8D86292CF5E08F2E912C21
:1019F000C8010E941106232DA2016D85722DC80118
:101A00000E948A08C8010E941804C114D10411F46C
:101A1000C30101C0C5010E947903F7018081918152
:101A20001816190654F48F819885019698878F832C
:101A3000069774F098868F820BC0892B49F08981B4
:101A40009A8101979A83898397FF02C01A8219822B
:101A5000F701828193811816190654F489859A85B5
:101A600001969A878987069774F09A8689860BC0B3
:101A7000892B49F08B819C8101979C838B8397FFF5
:101A800002C01C821B82F7018481958118161906F9
:101A900054F48B859C8501969C878B87069774F000
:101AA0009C868B860BC0892B49F08D819E81019786
:101AB0009E838D8397FF02C01E821D82FFEFCF1A87
:101AC000DF0A86E0C816D10409F092CFC3010E9454
:101AD000790364E0C62ED12C75E0872E912CF70196
:101AE000808191811816190654F48F819885019789
:101AF00098878F8397FF0EC018861F820BC0892B93
:101B000049F089819A8101969A838983069714F016
:101B10009A828982F701828193811816190654F4FA
:101B200089859A8501979A87898797FF0EC01A86BB
:101B300019860BC0892B49F08B819C8101969C836F
:101B40008B83069714F09C828B82F70184819581A8
:101B50001816190654F48B859C8501979C878B87F2
:101B600097FF0EC01C861B860BC0892B49F08D8108
:101B70009E8101969E838D83069714F09E828D82AE
:101B8000C8010E941106232DAE014F5F5F4FBE01B9
:101B9000695F7F4FC8010E948A08C8010E9418042B
:101BA000C5010E947903F1E0CF1AD10809F097CF5F
:101BB0002D960FB6F894DEBF0FBECDBFDF91CF914B
:101BC0001F910F91FF90EF90DF90CF90BF90AF905B
:101BD0009F908F907F906F905F904F903F902F904D
:101BE00008953F924F925F926F927F928F929F9251
:101BF000AF92BF92CF92DF92EF92FF920F931F931B
:101C0000CF93DF93CDB7DEB7A4970FB6F894DEBFBE
:101C10000FBECDBF7C01142F69013E0125E2620E8B
:101C2000711C88248394912C8C0E9D1E96E0492E65
:101C3000512C16C00E94751AF401EA0DFB1DB20169
:101C40000E94101A80838FEFA81AB80A26E0A21605
:101C5000B10481F786E0880E911C8614970419F070
:101C6000A12CB12CE7CF8AE08C9D20018D9D500CDA
:101C70001124A12CB12CC7010E9411066624639483
:101C8000712C6C0E7D1E312C1EC0F301E80DF91D68
:101C90002081822F90E0012F8A159B050CF02A2DC0
:101CA000482D632DC7010E9406072FEF821A920A62
:101CB00086E08816910449F7339426E0620E711C81
:101CC00086E0381619F0812C912CDFCFC7010E94D5
:101CD0001804A114B10411F4C20101C0C6010E948C
:101CE00079032FEFA21AB20A86E0A816B10419F6FA
:101CF0008FE0282F2C9DC0012D9D900D11240E9456
:101D00007903B4E08B2E912CC7010E941106662442
:101D10006394712C6C0E7D1E512C1EC0F301EA0DD4
:101D2000FB1D2081822F90E0012F881599050CF072
:101D3000282D4A2D652DC7010E9406078FEFA81A8E
:101D4000B80A26E0A216B10449F7539486E0680E5B
:101D5000711C26E0521619F0A12CB12CDFCFC7015F
:101D60000E941804C6010E94790381E0881A910834
:101D700059F6A4960FB6F894DEBF0FBECDBFDF9123
:101D8000CF911F910F91FF90EF90DF90CF90BF9078
:101D9000AF909F908F907F906F905F904F903F900B
:101DA0000895CF93DF93DC01EB01E881F9818D91F8
:101DB0009C911197E81BF90B2A813B8112968D911A
:101DC0009C911397281B390B6C817D8114968D9102
:101DD0009C911597681B790BDF01F7FF04C0AA27B8
:101DE000BB27AE1BBF0BC90137FF04C0882799274B
:101DF000821B930BEB0177FF04C0CC27DD27C61BAA
:101E0000D70B309739F42115310521F4611571058F
:101E100009F44CC04230510541F144F441155105DB
:101E200069F04130510509F041C014C044305105FA
:101E300039F114F145305105C9F526C0F7FD36C01A
:101E400017C023E030E034C0161617064CF524E026
:101E500030E02EC037FD2AC0AC17BD07ACF31E160C
:101E60001F060CF522E030E023C01E161F06F4F01A
:101E70008C179D074CF30EC012161306BCF0ECCF66
:101E8000161617069CF002C077FD10C0A817B907F8
:101E90000CF0E5CF12161306A4F221E030E008C0E2
:101EA00025E030E005C020E030E002C02FEF3FEF3A
:101EB000C901DF91CF9108952F923F924F925F9287
:101EC0006F927F928F929F92AF92BF92CF92DF924A
:101ED000EF92FF920F931F93CF93DF93CDB7DEB7AF
:101EE000C85CD1090FB6F894DEBF0FBECDBF6C0140
:101EF000362E142FB52ECE0182579F4F0E945300CD
:101F000001E021E041E065E0EE24E394F12CEC0EE9
:101F1000FD1EC7010E948B180F2D0E94751AF60135
:101F2000608170E00E94101A9C01C953DF4F8883C2
:101F3000C75CD040C853DF4F3883C85CD0400E9494
:101F4000751AF601608170E00E94101AF92ECA53CA
:101F5000DF4F8883C65CD0400E94751AF60160810D
:101F600070E00E94101ABC01C953DF4F2881C75C82
:101F7000D040C853DF4F3881C85CD040CA53DF4FD0
:101F80004881C65CD0405F2DCE0182549F4F0E9495
:101F9000ED19C254DF4F2881CE5BD040C154DF4FD2
:101FA0003881CF5BD040C054DF4F4881C05CD04007
:101FB000CF53DF4F5881C15CD040CE53DF4F688193
:101FC000C25CD040CD53DF4F7881C35CD0408E2DB2
:101FD000902F0E948219892B09F09FCFCE01825742
:101FE0009F4F0E945501882309F484C090E09C0112
:101FF000C455DF4F0880CC5AD04002C03595279594
:102000000A94E2F720FD04C042E0E42EF12C02C065
:10201000E12CF12C9C01C055DF4F0880C05BD04003
:1020200002C0359527950A94E2F720FF03C032E0FD
:10203000E32EF12C9C01C255DF4F0880CE5AD040D0
:1020400002C0359527950A94E2F720FF03C0EE24DD
:10205000E394F12C9C01CE54DF4F0880C25BD0404A
:1020600002C0359527950A94E2F720FF03C003E0EC
:10207000E02EF12C9C01CC54DF4F0880C45BD04093
:1020800002C0359527950A94E2F720FF03C0B4E01B
:10209000EB2EF12CCA54DF4F0880C65BD04002C043
:1020A000959587950A94E2F780FF07C0A5E0EA2E90
:1020B000F12C03C0F2E0EF2EF12C812F9B2D97FD28
:1020C00001969C0135952795CC53DF4F39832883A2
:1020D000C45CD04001E010E054E0252E66246394F7
:1020E000712CAA24A394B12C88248394912C412C84
:1020F000512C10C03110DECFC6010E94110607E03E
:1021000021E041E061E0C6010E940607C6010E948D
:10211000180464CFCE0182579F4F0E945501482F6B
:1021200020E030E02AC082E090E0C953DF4F2883EE
:10213000C75CD040C853DF4F3883C85CD040CA5317
:10214000DF4F4883C65CD0400E947903CE0182579E
:102150009F4F0E945501CA53DF4F4881C65CD04053
:10216000482BC953DF4F2881C75CD040C853DF4F8D
:102170003881C85CD0402F5F3F4FCC53DF4F888100
:102180009981C45CD040281739076CF23110B5C072
:10219000E114F10421F092E0E916F10419F5842F1D
:1021A00090E09C01C255DF4F0880CE5AD04002C05B
:1021B000359527950A94E2F720FF03C0EE24E394B7
:1021C000F12C9C01CE54DF4F0880C25BD04002C08E
:1021D000359527950A94E2F720FF2DC023E0E22EE3
:1021E000F12C29C0E1E0EE16F10421F0F3E0EF1646
:1021F000F104F1F5842F90E09C01C455DF4F088075
:10220000CC5AD04002C0359527950A94E2F720FFBA
:1022100002C0E12CF12C9C01C055DF4F0880C05B4F
:10222000D04002C0359527950A94E2F720FF03C0FD
:10223000B2E0EB2EF12C9C01CC54DF4F0880C45B44
:10224000D04002C0359527950A94E2F720FF03C0DD
:10225000A4E0EA2EF12CCA54DF4F0880C65BD040C0
:1022600002C0959587950A94E2F780FD8BC058C00F
:102270009701245031092230310508F051C0842FD4
:1022800090E09C01C255DF4F0880CE5AD04002C07A
:10229000359527950A94E2F720FF03C0EE24E394D6
:1022A000F12C9C01CE54DF4F0880C25BD04002C0AD
:1022B000359527950A94E2F720FF03C0E3E0EE2E60
:1022C000F12C9C01C455DF4F0880CC5AD04002C08D
:1022D000359527950A94E2F720FF02C0E12CF12CF6
:1022E000C055DF4F0880C05BD04002C095958795F0
:1022F0000A94E2F780FD37C013C09301A501B40131
:10230000CE0188549F4F0E94ED19A701BE0162546F
:102310007F4FCE0188549F4F0E94D10E97FF7C01C2
:1023200022E0E216F104F9F04CF4E114F10489F032
:1023300081E0E816F10409F027C111C094E0E91624
:10234000F104E1F0BCF0F5E0EF16F10409F01CC176
:1023500019C021E0821A910897FE1BC0F3C031E03A
:10236000A31AB10811C18FEF881A980A72E0E72EFC
:10237000F12C0AC19FEFA91AB90A06C1EFEF6E1A34
:102380007E0A02C1F1E06F1A710865E0E62EF12CB9
:10239000FBC077FCD7C0F601808190E088169906D3
:1023A0000CF0D0C0A816B9060CF0CCC0681679069F
:1023B0000CF0C8C0012B91F0262D4A2D682DCE01BE
:1023C00001960E94CD18C254DF4F88819981CE5B5F
:1023D000D0408816990609F08DC007C0CE0101963D
:1023E0000E945219892B41F3ADC0C054DF4F888140
:1023F0009981C05CD040A816B90609F07BC0CE53C5
:10240000DF4F88819981C25CD0406816790609F057
:1024100071C0FFEF4F1A5F0A622DCE0101960E9434
:10242000C5190E94751AF601608170E00E94101AA9
:102430009C01C953DF4F8883C75CD040C853DF4F2E
:102440003883C85CD0400E94751AF601608170E044
:102450000E94101A192FCA53DF4F8883C65CD040E0
:102460000E94751AF601608170E00E94101AC9532B
:10247000DF4F2881C75CD040C853DF4F3881C85C2C
:10248000D040CA53DF4F4881C65CD040512FBC01B9
:10249000CE0182549F4F0E94ED19C254DF4F288114
:1024A000CE5BD040C154DF4F3881CF5BD040C054A9
:1024B000DF4F4881C05CD040CF53DF4F5881C15CB3
:1024C000D040CE53DF4F6881C25CD040CD53DF4F48
:1024D0007881C35CD040CE0101960E948219892B7D
:1024E00009F09FCF0E94751A66E070E00E94101AF2
:1024F000282E2394332021F0F5E64F16510414F5CD
:10250000C6010E941106022DCE53DF4F2881C25C06
:10251000D040C054DF4F4881C05CD040C254DF4F30
:102520006881CE5BD040C6010E940607BE016F5F86
:102530007F4FC6010E941B19C6010E94180400E0CB
:1025400010E0E8CD05E010E0C6010E943C06C6019F
:102550000E94180488EC90E00E947903C6010E9452
:102560001106C6010E94180488EC90E00E947903CD
:102570000150110949F702E310E027E041E0B20100
:10258000C6010E94110C03C0B7FE03CFDBCFC853B6
:10259000DF4F0FB6F894DEBF0FBECDBFDF91CF91F6
:1025A0001F910F91FF90EF90DF90CF90BF90AF9071
:1025B0009F908F907F906F905F904F903F902F9063
:1025C00008951092C50083E38093C40088E9809346
:1025D000C10086E08093C20008951F920F920FB64B
:1025E0000F9211242F933F934F935F936F937F9399
:1025F0008F939F93AF93BF93EF93FF930DC00E9470
:10260000F519682F87EC93E00E941E1887EC90E084
:102610000197F1F700C000008091C00087FDEFCF67
:10262000FF91EF91BF91AF919F918F917F916F91AA
:102630005F914F913F912F910F900FBE0F901F9080
:102640001895F89414BC15BC82E080936E0085B593
:10265000846085BD84B5826084BD8CE387BD16BC73
:10266000E1E8F0E0808182608083789408951F9291
:102670000F920FB60F9211242F933F934F935F93B6
:102680006F937F938F939F93AF93BF93EF93FF933A
:10269000299A6091C6038FE0689FB00111246459A4
:1026A0007C4F44E250E08FE294E00E94C01663E960
:1026B00072E086E692E00E94BC172998FF91EF91A4
:1026C000BF91AF919F918F917F916F915F914F914A
:1026D0003F912F910F900FBE0F901F901895CF93A1
:1026E000DF93CDB7DEB7C15DD3400FB6F894DEBF40
:1026F0000FBECDBF90E080E80FB6F89480936100E4
:10270000909361000FBE87B11FEF17B98FE08AB9B0
:102710001BB883E992E00E94840355E0E52E04E0B3
:1027200023E042E061E08FE294E00E94761622E02E
:1027300044E063E086E692E00E94BA1686E692E004
:102740000E947C1789E692E00E94530083E992E0A0
:102750000E943C0683E992E00E94180487EC93E013
:102760000E940D180E94E1120E9421132FE784E8B5
:102770009EE1215080409040E1F700C0000067E0FA
:1027800083E992E00E94730683E992E00E941804B4
:102790001AB91BB81E01A9E92A1AACEF3A0A8CE152
:1027A000E4E0F2E0D10101900D928A95E1F7F101A8
:1027B0007C9685E4DF011D928A95E9F780E090E040
:1027C00000E010E067E0462E512C14C087EC93E047
:1027D0000E945418E7E6F3E0EC0FFD1FE00FF11F35
:1027E00080830F5F1F4F81E090E004C080E090E0A5
:1027F00000E010E020912B04222341F3892B39F0D3
:10280000E7E6F3E0EC0FFD1FE00FF11F10820E94DE
:10281000751A69E070E00E94101A8C0184309105ED
:1028200009F41CC184F48130910509F47BC01CF4C7
:102830000097B9F0DBCF8230910509F4ABC083304B
:102840009105A1F6DFC08630910509F48FC10CF423
:1028500031C18730910509F405C28830910531F600
:1028600031C20E94751A65E070E00E94101A5C0186
:1028700000E010E052C027E0A10160E070E0CE016E
:1028800001960E94E20143E0C42ED12CCC0EDD1E45
:10289000E12CF12C0EC00E94751AB2010E94101A90
:1028A0008F5FF6018083FFEFEF1AFF0A29E0C20E67
:1028B000D11CCD59DC4F8881C356D34090E0E81637
:1028C000F9064CF31A8219821DC083E992E00E9436
:1028D0001106BE016F5F7F4F83E992E00E94AB0259
:1028E00083E992E00E9418048FE996E8A1E0815004
:1028F0009040A040E1F700C0000089819A810196D4
:102900009A838983E980FA80CE0101960E949F0212
:10291000E816F906D4F20F5F1F4FA016B1060CF0AF
:10292000AACF64CF0E94751A6FE070E00E94101A5F
:102930008C01015F1F4F0E94751A64E070E00E94D5
:10294000101A019624E6289F6001299FD00C1124BB
:10295000E12CF12C33E0A32EB12C0E94751A4C010E
:102960000E94751A9C01C401B2010E94101A482FDE
:102970004F5FC901B5010E94101A9601682F83E9C3
:1029800092E00E943B09BFEFEB1AFB0AE016F1064A
:1029900024F32CCF0E94751A6FE070E00E94101A89
:1029A0008C01015F1F4F0E94751A64E070E00E9465
:1029B000101A019624E6289F6001299FD00C11244B
:1029C000E12CF12C23E0A22EB12C0E94751A4C01AF
:1029D0000E94751A9C01C401B2010E94101A482F6E
:1029E0004F5FC901B5010E94101A9601682F83E953
:1029F00092E00E94820AEFEFEE1AFE0AE016F1065C
:102A000024F3F4CE0E94751A8C010E94751A6C0191
:102A10000E94751A7C01E4E0F0E0C601BF010E944B
:102A2000101A019644E6489F9001499F300D1124E9
:102A3000C701B2010E94101A482F4F5FC801BF01A1
:102A40000E94101A019652E3589FB001599F700DD1
:102A5000112483E992E00E94130BC8CE0E94751ADC
:102A600068E270E00E94101A7C01F9E1EF0EF11C9F
:102A70000E94751AB8010E94101A24E6289F80014E
:102A8000299F100D112408531F4FC12CD12C0EC0AB
:102A900083E992E00E94AB0683E992E00E94180469
:102AA000C8010E9479032FEFC21AD20ACE14DF04A4
:102AB0007CF39CCE0E94751A62E370E00E94101AAB
:102AC0007C018AE0E80EF11C0E94751A6AE070E051
:102AD0000E94101A2AE0289F4001299F900C11247F
:102AE00090E5890E911CC12CD12C93E0A92EB12C1C
:102AF00039C00E94751AB5010E94101A8C0101504C
:102B000011090E94751AB5010E94101A3C01A1E03A
:102B10006A1A71080E94751AB5010E94101A01976D
:102B20000115110529F46114710411F4009709F3DA
:102B30009C01A301B801CE0188539C4F0E94ED195E
:102B40000E94751AB2010E94101A482F4F5F94011B
:102B5000BE0168537C4F83E992E00E94B20CBFEF44
:102B6000CB1ADB0ACE14DF0424F240CE0E94751A81
:102B700068E270E00E94101A7C01E9E1EE0EF11C9F
:102B80000E94751A64E070E00E94101A44E6489FA3
:102B90009001499F300D1124C90188539F4FC253A2
:102BA000DC4F99838883CE5CD340612C712C86E006
:102BB000A82EB12C52C083E992E00E941106C12CCC
:102BC000D12C32C00E94751A8C010E94751A4C01DA
:102BD0000E94751AC053DC4F99838883C05DD3402F
:102BE0000E94751AFC01C801B2010E94101A082F38
:102BF0000F5FC401B5010E94101A282FC053DC4F8B
:102C000088819981C05DD340B5010E94101A482F78
:102C1000CF01B5010E94101A682F83E992E00E944B
:102C200006079FEFC91AD90A0E94751A6AE070E078
:102C30000E94101A04968C159D0524F683E992E0F3
:102C40000E941804C253DC4F88819981CE5CD34026
:102C50000E947903AFEF6A1A7A0A6E147F040CF4AB
:102C6000AACFC4CD0E94751A6FE070E00E94101ABE
:102C70008C01015F1F4F0E94751A6AE070E00E948C
:102C8000101A24E1289F6001299FD00C1124B0EA7A
:102C9000CB0ED11C0E94751AE12CF12C0E94751AE2
:102CA000B2010E94101A482F4F5F960160E083E93D
:102CB00092E00E94F10DEFEFEE1AFE0AE016F10627
:102CC0006CF394CD0E94751A6BE070E00E94101AAC
:102CD00024E6289FA001299F500D112446505F4FE4
:102CE00061E083E992E00E945C0F80CDEF920F9348
:102CF000FC016083418322830383E4820F91EF9080
:102D00000895FC016AB181E090E0AC01028002C04C
:102D1000440F551F0A94E2F79C01008002C0220F65
:102D2000331F0A94E2F7422B462B9C01018002C01C
:102D3000220F331F0A94E2F7422B4AB96BB1AC0160
:102D4000008002C0440F551F0A94E2F79C010280E4
:102D500002C0220F331F0A94E2F7242B018002C025
:102D6000880F991F0A94E2F7282B209526232BB968
:102D7000219A0895FC016083418322830C9481167B
:102D80004F925F926F927F928F929F92AF92BF927B
:102D9000CF92DF92EF92FF920F931F93CF93DF9327
:102DA000FC0151807A0181E0E81AF10833E0F594E2
:102DB000E7943A95E1F781E090E03C01008002C0A1
:102DC000660C771C0A94E2F7D62CD0949C01028002
:102DD00002C0220F331F0A94E2F7C22EB22EB09423
:102DE0009C01038002C0220F331F0A94E2F7A22E37
:102DF000922E9094048002C0880F991F0A94E2F7E3
:102E0000882E782E709420E030E04FC080E090E073
:102E1000DB01AE0FB11DFD01ED0125968D01065FB1
:102E20001F4FA8B1AD21A8B9A081F82EB0E0082E9F
:102E300002C0B595A7950A94E2F7A0FF03C0A8B118
:102E4000AC2902C0A8B1AB21A8B9A881B0E00F2C71
:102E500002C0B595A7950A94E2F7A0FF03C0A8B1F8
:102E6000AA2902C0A8B1A921A8B9D8014C90A42DC3
:102E7000B0E002C0B595A795FA94E2F7A0FF03C0B1
:102E8000A8B1A82902C0A8B1A721A8B9A8B1A629AC
:102E9000A8B9415051098730910529F00196411593
:102EA000510509F0BECF2F5F3F4FEE2DE21BEF3FE4
:102EB00021F04115510509F0A9CF28B181E090E03A
:102EC00001C0880F5A94EAF7982F9095922398B9E9
:102ED00098B1982B98B9DF91CF911F910F91FF90E6
:102EE000EF90DF90CF90BF90AF909F908F907F90AA
:102EF0006F905F904F900895FC012BB181E090E0BE
:102F0000028002C0880F991F0A94E2F780958223FD
:102F10008BB986E090E041E050E0ABB121E030E0D9
:102F2000BA01008002C0660F771F0A94E2F760952D
:102F30006A236BB9ABB1BA01008002C0660F771F7C
:102F40000A94E2F7A62BABB9019739F74BB1C90147
:102F5000018002C0880F991F0A94E2F780958423AC
:102F60008BB98BB1018002C0220F331F0A94E2F7A4
:102F7000822B8BB929980895FC014BB181E090E038
:102F80009C01008002C0220F331F0A94E2F72095B3
:102F900024232BB9DB01AD5CBE4F2C913281211172
:102FA00009C02BB1032E01C0880F0A94EAF7282B21
:102FB0002BB908C02BB101C0880F3A95EAF780956C
:102FC00082238BB94BB181E090E09C01008002C06C
:102FD000220F331F0A94E2F7422B4BB94BB19C01ED
:102FE000018002C0220F331F0A94E2F720952423A8
:102FF0002BB92BB1018002C0880F991F0A94E2F708
:10300000282B2BB9FB01ED5CFE4F80818F5F863052
:1030100010F48083089510820895FC0110821182BB
:103020001282DC01AD59BF4F1C92DC01AC59BF4F7D
:1030300081E08C93EB59FF4F10820895FC01DC0175
:10304000AD59BF4F1C9291818281981306C0208197
:10305000222319F081E08C930895DF01A80FB11DA0
:1030600013966C93282F2F5F228380818F5F80833C
:10307000203609F412822281DF01AB59BF4F92132F
:1030800005C0882319F081E08C930AC01C9292132A
:1030900007C0811105C0EC59FF4F81E0808308957E
:1030A000EC59FF4F10820895FC01DC01AD59BF4F70
:1030B0001C9291812281921307C08081811104C0EA
:1030C00082E08C9380E00895DF01A90FB11D139673
:1030D0008C91392F3F5F31839081915090833036AE
:1030E00009F411823181DF01AB59BF4F321305C0A2
:1030F000992319F091E09C930AC01C92321307C0E7
:10310000911105C0EC59FF4F91E090830895EC595F
:10311000FF4F108208959F92AF92BF92CF92DF929D
:10312000EF92FF920F931F93CF93DF937C01142FA5
:10313000B22EFC01E457FF4F6083C0E0D0E06F0186
:1031400087E0A82E96E0992E16C0F701EC0FFD1F20
:10315000E858FF4FA0829C9EC0019D9E900D1124B7
:10316000202F30E04B2D50E0612F70E08E0D9F1D21
:103170000E94ED192196F601808190E0C817D907C9
:1031800024F3DF91CF911F910F91FF90EF90DF908B
:10319000CF90BF90AF909F900895EF92FF920F93C2
:1031A0001F93CF93DF9300D000D000D0CDB7DEB710
:1031B0008C0130E050E070E0CE0101960E94ED19E4
:1031C000F801E457FF4F8081482F50E0B80196E0A6
:1031D000899F600D711D112420E030E080E090E0B7
:1031E000E6E0FE2E0AC0DB01A20FB31FFD013697F9
:1031F000EF2C01900D92EA94E1F7019626503109E7
:10320000FA01E81BF90B1E161F066CF386E0FE019F
:103210003196D80101900D928A95E1F726960FB666
:10322000F894DEBF0FBECDBFDF91CF911F910F91FC
:10323000FF90EF9008958F929F92AF92BF92CF929E
:10324000DF92EF92FF920F93CF93DF935C016B01BC
:10325000EB01E12CF12C4B018CE8880E911C10C085
:10326000F601EE0DFF1DE858FF4F00812C814A81C9
:103270006881C5010E940607EFEFEE1AFE0A269646
:10328000F401808190E0E816F90654F3DF91CF91C4
:103290000F91FF90EF90DF90CF90BF90AF909F90F5
:1032A0008F900895DC01FC01E457FF4F208130E04E
:1032B000FC0181E090E01CC06D917C9111974681EA
:1032C00057816417750791F412966D917C9113974D
:1032D000408551856417750749F414966D917C916A
:1032E0001597428553856417750741F00196369608
:1032F000821793070CF320E030E002C021E030E0B9
:10330000C90108950F931F93CF93DF9300D000D08E
:1033100000D0CDB7DEB729833A834B835C836D83BE
:103320007E83FC01E457FF4F208130E049815A81C0
:103330006B817C81AD81BE81FC0180E090E011C099
:10334000008111814017510751F4028113816017E8
:10335000710729F404811581A017B10741F0019686
:1033600036968217930764F320E030E002C021E034
:1033700030E0C90126960FB6F894DEBF0FBECDBF70
:10338000DF91CF911F910F910895FC01E457FF4FFA
:103390004081443108F54F5F408350E09A0121504D
:1033A000310976E0729FD001739FB00D1124A80FF0
:1033B000B91F42505109749FF001759FF00D1124FF
:1033C000E80FF91F01900D927A95E1F7820F931F94
:1033D000FC01E858FF4F60830895FC01718360830E
:1033E000538342833583248308958091C00087FFEF
:1033F000FCCF8091C6000895AA1BBB1B51E107C0FA
:10340000AA1FBB1FA617B70710F0A61BB70B881F74
:10341000991F5A95A9F780959095BC01CD01089503
:1034200097FB072E16F4009407D077FD09D00E9471
:10343000FC1907FC05D03EF4909581959F4F0895A7
:10344000709561957F4F08958F929F92AF92BF9232
:10345000CF92DF92EF92FF92CF93DF93EC016881DE
:1034600079818A819B81611571058105910521F41E
:1034700064E279ED8BE597E02DE133EF41E050E038
:103480000E94981A49015A019B01AC01A7EAB1E4D4
:103490000E94851A6B017C01ACEEB4EFA50194018A
:1034A0000E94931AC60ED71EE81EF91EF7FE06C02C
:1034B00081E0C81AD108E10880E8F80AC882D982F8
:1034C000EA82FB82E894D7F8EE24FF24C601DF915C
:1034D000CF91FF90EF90DF90CF90BF90AF909F90F3
:1034E0008F9008950E94241A089580E091E00E9430
:1034F000241A0895A0E0B0E08093000190930101A8
:10350000A0930201B093030108950E94B41AA59FED
:10351000900DB49F900DA49F800D911D11240895CE
:10352000B7FF0C94851A0E94851A821B930B08958D
:10353000052E97FB16F4009407D057FD0DD00E947E
:10354000C01A07FC09D07EF490958095709561951E
:103550007F4F8F4F9F4F08955095409530952195FF
:103560003F4F4F4F5F4F0895A29FB001B39FC001DF
:10357000A39F01D0B29F700D811D1124911D08954C
:10358000A1E21A2EAA1BBB1BFD010DC0AA1FBB1F67
:10359000EE1FFF1FA217B307E407F50720F0A21BD9
:1035A000B30BE40BF50B661F771F881F991F1A9446
:1035B00069F760957095809590959B01AC01BD0170
:0835C000CF010895F894FFCF3C
:1035C80001000000003E223E2222003E222C223E24
:1035D800003E2020203E003C2222223C003E203C8F
:1035E800203E003E203C2020003E2026223E002295
:1035F800223E2222003E0808083E00060202223E21
:1036080000222438242200202020203E0022362AAE
:1036180022220022322A2622001C2222221C003CBE
:10362800223C2020003E22223E08003C223C22224E
:10363800003E203E023E003E0808080800222222E2
:10364800223E0022221414080022222A2A140022D0
:1036580014081422002222140808003E0408103E10
:10366800003E262A323E00081808081C003C021CAE
:10367800203E003E021C023E002028283E08003E54
:10368800203C023C003E203E223E003E0204080848
:10369800003E223E223E003E223E023E0000000145
:1036A80000020003000400050105020503050405E6
:1036B80005050504050305020501050004000300CE
:1036C8000200010054455354494E47205445535471
:1036D800494E4720313233342035363720383900C7
:1036E80000000000000000000000000000000000D2
:1036F80000000000000000000000000000000000C2
:1037080000000000000000000000000000000000B1
:1037180000000000000000000000000000000000A1
:063728000000000000009B
:00000001FF
