:100000000C9434000C9446000C9446000C9446006A
:100010000C9446000C9446000C9446000C94460048
:100020000C9446000C9446000C9446000C94460038
:100030000C9446000C9446000C9446000C94460028
:100040000C9446000C9446000C9446000C94460018
:100050000C9446000C9446000C9446000C94460008
:100060000C9446000C94460011241FBECFEFD8E03C
:10007000DEBFCDBF11E0A0E0B1E001C01D92A8310C
:10008000B107E1F70E9487000C94DC000C9400009B
:100090008EBD0DB407FEFDCF8EB50895CF93DF93CF
:1000A00080E00E94480080E00E94480080E00E94BA
:1000B000480080E00E944800C2E0D1E08FEF0E943B
:1000C000480088810E944800FE01319780810E948B
:1000D0004800FE01329780810E944800239681E00B
:1000E000CA31D80759F78FEFDF91CF910C944800B0
:1000F000E2E0F1E0DF0112971C92DF0111971C9200
:100100001082339681E0EA31F807A1F708958CE276
:1001100084B98CB580658CBD8DB581608DBD15B8F9
:100120000E947800C0E0D0E01FE0C330D10534F574
:100130000E94780080E090E09E0120503F4FF9013E
:10014000E80FF91F1083039688319105C1F70E94CB
:100150004E00209741F42FE78AE196E0215080403D
:100160009040E1F707C02FE38DE093E021508040FD
:100170009040E1F700C000002196D7CFC2E0D1E067
:100180000E947800FE0132971083FE0131971083A0
:1001900018830E944E002FE986E891E021508040AC
:1001A0009040E1F700C00000239621E0CA31D20759
:0C01B00039F7C0E0D0E0B9CFF894FFCFE1
:00000001FF
