:100000000C9434000C9451000C9451000C94510049
:100010000C9451000C9451000C9451000C9451001C
:100020000C9451000C9451000C9451000C9451000C
:100030000C9451000C9451000C9451000C945100FC
:100040000C9451000C9451000C9411010C9451002B
:100050000C9451000C9451000C9451000C945100DC
:100060000C9451000C94510011241FBECFEFD8E026
:10007000DEBFCDBF11E0A0E0B1E0E0E7F4E002C0F8
:1000800005900D92A430B107D9F711E0A4E0B1E0DA
:1000900001C01D92A730B107E1F70E9477010C94CF
:1000A00036020C940000E0E8F0E0808181608083FB
:1000B000A1E8B0E08C9188608C938C9182608C93E5
:1000C0008081806880838081806280838081806C71
:1000D0008083808180638083E0EBF0E080818160B9
:1000E0008083808182608083A1EBB0E08C9182600C
:1000F0008C938081806880838081806C8083089568
:100100000F931F93CF93DF9300D01F92CDB7DEB72D
:100110008C012B834A8369830E945300F801138268
:10012000698160834A8141832B8122830F900F90E4
:100130000F90DF91CF911F910F9108958093B3009D
:1001400070E070938B0060938A0050E050938900B8
:10015000409388000895239A229A219A0895CF9275
:10016000DF92EF92FF920F931F93CF93DF93EC01F7
:10017000FB01DA01C601488150816C91421305C030
:1001800050130DC06E110BC037C030E0241B310975
:100190001216130614F44F5F01C0415048832C918E
:1001A0002E1551F0F12CE61AF1081E141F0414F458
:1001B0002F5F01C021502C932081201751F010E0B7
:1001C000051B11091016110614F42F5F01C02150F0
:1001D00020832C91408138813093B30050E05093BC
:1001E0008B0040938A0030E0309389002093880090
:1001F0000E94060180E001C081E0DF91CF911F9154
:100200000F91FF90EF90DF90CF90089507C0E9EF36
:10021000F0E03197F1F700C0000001970097B9F7BF
:1002200008951F920F920FB60F9211241F932F93D0
:100230003F934F935F936F937F938F939F93AF936E
:10024000BF93CF93DF93EF93FF930E942F028134EC
:1002500041F18335A1F50E942F02182F0E942F0231
:10026000D82F0E942F02C82F0E942F02823038F50B
:10027000811109C01092020110930401D09305016D
:10028000C09306011CC00E942F0291E090930201CE
:1002900010930401D0930501C093060180930101DE
:1002A0000EC00E942F0292E0909302018093000101
:1002B00006C00E942F0281E28A95F1F7000080912A
:1002C000C00087FDF6CFFF91EF91DF91CF91BF91F5
:1002D000AF919F918F917F916F915F914F913F91DE
:1002E0002F911F910F900FBE0F901F901895CF93D5
:1002F000DF93CDB7DEB727970FB6F894DEBF0FBEFA
:10030000CDBF8FEF8F831E821D820E941E028091BF
:10031000C10080688093C10002C00E942F028091BA
:10032000C00087FDFACF789420E040E060E0CE0185
:1003300001960E9480004D816E818F810E949E00F7
:100340000E94AB002FE986E891E021508040904068
:10035000E1F700C0000010E0FF24FA9403C012E0AF
:1003600001C010E080910201813091F018F08230DC
:10037000C9F722C0809104018F83609105016E83CB
:10038000409106014D830E949E00F0920201EACF47
:10039000C0900101E0900601009105012091040147
:1003A000D12CAE014B5F5F4FBE016A5F7F4FCE0124
:1003B00007960E94AF00D6CF111114C0C090000163
:1003C000D12CE12C00E02FEFAE014B5F5F4FBE015F
:1003D0006A5F7F4FCE0107960E94AF0011E0811146
:1003E000C1CFBFCF113099F4C0900001D12CE12CC6
:1003F0000FEF20E0AE014B5F5F4FBE016A5F7F4FA2
:10040000CE0107960E94AF008111A9CFABCF123069
:1004100009F0A8CFC0900001D12CEE24EA9400E0AE
:1004200020E0AE014B5F5F4FBE016A5F7F4FCE01A0
:1004300007960E94AF00811194CF94CF1092C5000F
:100440008CE08093C400E0ECF0E0808182608083E7
:1004500088E18093C10086E08093C2000895809176
:10046000C00087FFFCCF8091C6000895F894FFCFAD
:040470001919020054
:00000001FF
