:100000000C9434000C9451000C9451000C94510049
:100010000C9451000C9451000C9451000C9451001C
:100020000C9451000C9451000C9451000C9451000C
:100030000C9451000C9451000C945B150C945100DD
:100040000C9451000C9451000C9451000C945100EC
:100050000C9451000C9451000C9451000C945100DC
:100060000C9451000C94510011241FBECFEFD8E026
:10007000DEBFCDBF11E0A0E0B1E0ECE6FAE302C0E4
:1000800005900D92A830B107D9F711E0A8E0B1E0D2
:1000900001C01D92A138B107E1F70E94B0150C9480
:1000A000341D0C940000FC0186E090E09283818373
:1000B0001782168227E030E034872387318B208B2C
:1000C00025E030E0368B258B938F828F86E480830A
:1000D0008CE4858382E4828782E5878785E5848B4B
:1000E00084E4818F14821382118610861686158609
:1000F000138A128A108E178A158E148E178E168EFA
:1001000081E090E091A380A342E050E053A342A39A
:1001100043E050E055A344A344E050E057A346A376
:1001200031A720A7269844B19C01068002C0220F67
:10013000331F0A94E2F72095242324B944B19C018B
:10014000038402C0220F331F0A94E2F72095242370
:1001500024B94AB19C01008802C0220F331F0A94BF
:10016000E2F7209524232AB94AB19C01058802C0F0
:10017000220F331F0A94E2F7209524232AB94AB1AB
:100180009C01028C02C0220F331F0A94E2F72095D3
:1001900024232AB945B19C01018002C0220F331FDC
:1001A0000A94E2F7422B45B945B19C01068002C092
:1001B000220F331F0A94E2F7422B45B945B19C0147
:1001C000038402C0220F331F0A94E2F7422B45B981
:1001D0004BB19C01008802C0220F331F0A94E2F742
:1001E000422B4BB94BB19C01058802C0220F331F33
:1001F0000A94E2F7422B4BB92BB1028C02C0880F54
:10020000991F0A94E2F7282B2BB90895FC01663454
:1002100071F030F46234E9F0643409F042C034C063
:10022000623501F1653539F16C34D9F509C023B176
:1002300030E0018002C0359527950A94E2F72CC082
:1002400023B130E0068002C0359527950A94E2F785
:1002500023C023B130E0038402C0359527950A946A
:10026000E2F71AC029B130E0008802C03595279521
:100270000A94E2F711C029B130E0058802C0359533
:1002800027950A94E2F708C029B130E0028C02C039
:10029000359527950A94E2F72170332781E02827C6
:1002A00002C020E030E0C90108951F93CF93DF938F
:1002B000EC0166E40E940601892B51F081E090E098
:1002C0000E8C02C0880F991F0A94E2F7182F01C004
:1002D00010E06CE4CE010E940601892B49F021E078
:1002E00030E008A002C0220F331F0A94E2F7122B5D
:1002F00062E4CE010E940601892B49F021E030E042
:100300000AA002C0220F331F0A94E2F7122B62E503
:10031000CE010E940601892B49F021E030E00CA0BB
:1003200002C0220F331F0A94E2F7122B65E5CE01BB
:100330000E940601892B49F021E030E00EA002C0A6
:10034000220F331F0A94E2F7122B64E4CE010E94BD
:100350000601892B49F021E030E008A402C0220FF9
:10036000331F0A94E2F7122B812FDF91CF911F9157
:10037000089507C0E9EFF0E03197F1F700C0000001
:1003800001970097B9F70895FC0170969C0144E02D
:1003900050E0DF011F971C92DF011E971C92DF01C6
:1003A0001D971C92DF011C971C92DF011B971C926A
:1003B000DF011A971C92DF0119971C92DF01189731
:1003C0001C92DF0117971C92DF0116971C92DF0128
:1003D00015971C92DF0114971C92DF0113971C9252
:1003E000DF0112971C92DF0111971C921082D90134
:1003F000AF5BBF4F1C92D901AE5BBF4F1C92415007
:10040000510970962E5F3F4F4115510511F624E0BA
:10041000FC012083E75BFF4F108208952F923F92EB
:100420004F925F926F927F928F929F92AF92BF9204
:10043000CF92DF92EF92FF920F931F93CF93DF93B0
:10044000CDB7DEB72A970FB6F894DEBF0FBECDBF8B
:10045000FC01408150E03C0188249924841A950ACB
:10046000880C991CDC0118861F825E834D8370E81E
:10047000272E312C74C06D01F1E4CF0ED11CF60192
:100480001082FD01EE5BFF4F10821A861986E12C67
:10049000F12C60E070E0AF80B884AA0CBB1CA80E01
:1004A000B91E3CC00B811C81020F131FF801118182
:1004B0001123F9F0623071056CF409851A85020F79
:1004C000131FF10102C0F595E7950A95E2F78F0138
:1004D000F6010CC009811A81020F131FF10102C03D
:1004E000F595E7950A95E2F78F01F2011081102B3F
:1004F00010832F5F3F4F24173507A4F26F5F7F4FA4
:10050000F4E0EF0EF11C49845A842D813E81420EA5
:10051000531E5A86498664177507BCF48B011595DE
:100520000795E985FA85E80DF91DFA83E98320E04E
:1005300030E02701460C571C5C824B820A0D1B1DC4
:100540002801E1E44E0E511CADCF2F8138852F5F7D
:100550003F4F38872F8330E1630E711C1296EF8175
:10056000F885E417F5070CF486CF2A960FB6F894B1
:10057000DEBF0FBECDBFDF91CF911F910F91FF90D6
:10058000EF90DF90CF90BF90AF909F908F907F9033
:100590006F905F904F903F902F9008952F923F92D1
:1005A0004F925F926F927F928F929F92AF92BF9283
:1005B000CF92DF92EF92FF920F931F93CF93DF932F
:1005C000CDB7DEB760970FB6F894DEBF0FBECDBFD4
:1005D000DE01119628E0FD0111922A95E9F7FC0150
:1005E000608170E0B88BAF87AA24BB24A61AB70A33
:1005F000AA0CBB1C4C0100E010E07E876D8720E850
:10060000422E512C5CC06101C20ED31ED601119640
:10061000DC90DD2009F14230510584F46901CE0CF3
:10062000DF1CD20102C0B595A795CA94E2F76D010F
:10063000AF85B889DC90DC28DC920EC0C984DA84EE
:10064000C20ED31ED20102C0B595A795CA94E2F797
:100650006D01D080DC28D0822F5F3F4F26173707EF
:1006600094F24F5F5F4FB4E06B0E711CED85FE8519
:10067000EE0EFF1E46175707C4F4FA01F595E795ED
:1006800097012A0D3B1D3A87298720E030E01301AE
:10069000280C391CAB85BC85EA0FFB1FA1E0B0E03C
:1006A000AC0FBD1FEA0FFB1FAECF0F5F1F4FB0E1B6
:1006B0008B0E911CEF85F8893296F88BEF87061721
:1006C000170764F4E12CF12C612C712C40E050E010
:1006D0009801220F331F3C872B87CFCFFE01329624
:1006E0009E01265F3F4FBC016F5B7F4FAF014150C2
:1006F0005109DA014C91DB014C934081DC01AE5B86
:10070000BF4F4C9302963296E217F30761F760965B
:100710000FB6F894DEBF0FBECDBFDF91CF911F9112
:100720000F91FF90EF90DF90CF90BF90AF909F9090
:100730008F907F906F905F904F903F902F90089593
:10074000409624E030E0FC013F971082FC013E9788
:100750001082FC013D971082FC013C971082FC0145
:100760003B971082FC013A971082FC013997108266
:10077000FC0138971082FC0137971082FC013697F4
:100780001082FC0135971082FC0134971082FC0125
:1007900033971082FC0132971082FC01319710824E
:1007A000FC0110822150310940962115310559F67E
:1007B0000895CF92DF92FF920F931F93CF93DF9311
:1007C000EC01488150E060E070E0FF24F3941DC02C
:1007D0008601020F131FE801F9822F5F3F4F241794
:1007E0003507B4F311963496A417B5072CF00AC058
:1007F000E0E0F0E0A0E0B0E020E030E06F01C80E03
:10080000D91EE6CF6F5F7F4F40966417750784F35C
:10081000DF91CF911F910F91FF90DF90CF900895BE
:10082000FC0130816317A0F4431790F4231780F480
:1008300034E0239FF0011124E60FF11DEE0FFF1F9E
:10084000EE0FFF1FE80FF91FE40FF11D81E0818318
:100850000895DF92EF92FF920F931F93CF93DF9350
:100860007C01D62EC0E0D0E012C02D2D402F6C2F81
:10087000C7010E9410040F5F1F4F02C000E010E08C
:10088000F701808190E0081719077CF32196F701A2
:10089000808190E0C817D9078CF3DF91CF911F9129
:1008A0000F91FF90EF90DF900895FC013081631766
:1008B00098F4431788F4231778F434E0239FF00169
:1008C0001124E60FF11DEE0FFF1FEE0FFF1FE80FC3
:1008D000F91FE40FF11D11820895EF92FF920F931B
:1008E0001F93CF93DF93EC01F42EE22E6623E9F001
:1008F000613051F42BC0202F4E2D6F2DCE010E9460
:1009000010040F5F1F4F02C000E010E0888190E0EC
:100910000817190784F321C02E2D402F6F2DCE010B
:100920000E9410040F5F1F4F02C000E010E088819A
:1009300090E00817190784F310C02E2D4F2D602F5B
:10094000CE010E9410040F5F1F4F02C000E010E0B4
:10095000888190E00817190784F3DF91CF911F91E8
:100960000F91FF90EF900895DF92EF92FF920F9317
:100970001F93CF93DF93EC01D42E662301F16130F6
:10098000D1F1642FDF91CF911F910F91FF90EF90E4
:10099000DF900C9429042E2D4D2D602FCE010E9446
:1009A00010048FEFE81AF80A02C0E12CF12C8881BC
:1009B00090E0E816F9067CF30F5F1F4F02C000E0DD
:1009C00010E0888190E0081719077CF31BC02E2DDA
:1009D000402F6D2DCE010E9410048FEFE81AF80A07
:1009E00002C0E12CF12C888190E0E816F9067CF336
:1009F0000F5F1F4F02C000E010E0888190E00817F1
:100A000019077CF3DF91CF911F910F91FF90EF9029
:100A1000DF900895DF92EF92FF920F931F93CF9391
:100A2000DF93EC01D42E6623C1F0613009F04DC094
:100A300030C02E2D4D2D602FCE010E9455048FEF1A
:100A4000E81AF80A02C0E12CF12C888190E0E8163F
:100A5000F9067CF30F5F1F4F02C000E010E08881B1
:100A600090E0081719077CF337C02E2D402F6D2D0D
:100A7000CE010E9455048FEFE81AF80A02C0E12C5B
:100A8000F12C888190E0E816F9067CF30F5F1F4F88
:100A900002C000E010E0888190E0081719077CF39D
:100AA0001BC02D2D4E2D602FCE010E9455048FEFBF
:100AB000E81AF80A02C0E12CF12C888190E0E816CF
:100AC000F9067CF30F5F1F4F02C000E010E0888141
:100AD00090E0081719077CF3DF91CF911F910F91D8
:100AE000FF90EF90DF9008956F927F928F929F9288
:100AF000AF92BF92CF92DF92EF92FF920F931F932C
:100B0000CF93DF938C017B01742E922ECFE0D0E047
:100B1000EFE0AE2EB12CFFE06F2ECC24C394D12C8D
:100B2000B3E08B2EC5018C1B9D0B959587959595F4
:100B30008795282F382F330F330F662D6C1B631BBF
:100B4000772021F031E0731231C015C0C6010C2EA0
:100B500002C0880F991F0A94E2F78E219F21892BEA
:100B600029F0882D821B282F492D15C0382D321BC6
:100B7000232F492D19C0C6010C2E02C0880F991FC2
:100B80000A94E2F78E219F21892B49F0882D821B40
:100B9000282F462F692DC8010E94100419C0382D36
:100BA000321B232F462F692DC80110C0F6010C2ED1
:100BB00002C0EE0FFF1F0A94E2F7EE21FF21292D5C
:100BC000462F682FC801EF2B09F0E6CF0E9455048D
:100BD000219708F0A7CFDF91CF911F910F91FF9040
:100BE000EF90DF90CF90BF90AF909F908F907F90CD
:100BF0006F900895AF92BF92CF92DF92EF92FF92E3
:100C00000F931F93CF93DF93EC018A01662369F161
:100C1000613009F0EAC089C0CE010E94A003E12C36
:100C2000F12C14C02A2D4C2D6E2DCE010E941004E3
:100C30008FEFA81AB80A02C0A12CB12C888190E0CD
:100C4000A816B9067CF38FEFE81AF80A888190E0BD
:100C5000E816F9068CF3CE010E940E02C8010E942C
:100C6000B9018FEFC81AD80A02C0C12CD12CE88074
:100C7000F12CCE14DF0484F282E0E81AF10828C0D7
:100C8000CE010E94A003C12CD12C14C02A2D4E2DC0
:100C90006C2DCE010E9410048FEFA81AB80A02C072
:100CA000A12CB12C888190E0A816B9067CF38FEFB7
:100CB000C81AD80A888190E0C816D9068CF3CE01EC
:100CC0000E940E02C8010E94B90181E0E81AF108F1
:100CD0001E141F04ACF2BFC0CE010E94A003E12C81
:100CE000F12C14C02A2D4E2D6C2DCE010E94100423
:100CF0008FEFA81AB80A02C0A12CB12C888190E00D
:100D0000A816B9067CF38FEFE81AF80A888190E0FC
:100D1000E816F9068CF3CE010E940E02C8010E946B
:100D2000B9018FEFC81AD80A02C0C12CD12CE880B3
:100D3000F12CCE14DF0484F282E0E81AF10828C016
:100D4000CE010E94A003C12CD12C14C02A2D4C2D01
:100D50006E2DCE010E9410048FEFA81AB80A02C0AF
:100D6000A12CB12C888190E0A816B9067CF38FEFF6
:100D7000C81AD80A888190E0C816D9068CF3CE012B
:100D80000E940E02C8010E94B90181E0E81AF10830
:100D90001E141F04ACF25FC0CE010E94A003E12C20
:100DA000F12C14C02C2D4A2D6E2DCE010E94100462
:100DB0008FEFA81AB80A02C0A12CB12C888190E04C
:100DC000A816B9067CF38FEFE81AF80A888190E03C
:100DD000E816F9068CF3CE010E940E02C8010E94AB
:100DE000B9018FEFC81AD80A02C0C12CD12CE880F3
:100DF000F12CCE14DF0484F282E0E81AF10828C056
:100E0000CE010E94A003C12CD12C14C02E2D4A2D3E
:100E10006C2DCE010E9410048FEFA81AB80A02C0F0
:100E2000A12CB12C888190E0A816B9067CF38FEF35
:100E3000C81AD80A888190E0C816D9068CF3CE016A
:100E40000E940E02C8010E94B90181E0E81AF1086F
:100E50001E141F04ACF2DF91CF911F910F91FF90F0
:100E6000EF90DF90CF90BF90AF900895FF920F93D7
:100E70001F93CF93DF93EC01162FF42E052F0E94C2
:100E8000A00323E040E0612FCE010E946D0422E028
:100E900041E0612FCE010E946D0421E042E0612F0C
:100EA000CE010E946D0420E043E0612FCE010E943C
:100EB0006D04CE010E94CE028F2D902F0E94B901A9
:100EC000CE010E94A00323E041E0612FCE010E94E9
:100ED0006D0422E041E0612FCE010E946D0421E00B
:100EE00042E0612FCE010E946D0420E042E0612FBC
:100EF000CE010E946D04CE010E94CE028F2D902F54
:100F00000E94B901CE010E94A00323E042E0612FBC
:100F1000CE010E946D0422E042E0612FCE010E94CA
:100F20006D0421E041E0612FCE010E946D0420E0BC
:100F300041E0612FCE010E946D04CE010E94CE02DD
:100F40008F2D902F0E94B901CE010E94A00320E0B6
:100F500040E0612FCE010E946D0421E041E0612F4D
:100F6000CE010E946D0422E042E0612FCE010E947A
:100F70006D0423E043E0612FCE010E946D04CE0199
:100F80000E94CE028F2D902F0E94B901CE010E94A7
:100F9000A00321E040E0612FCE010E946D0421E01A
:100FA00041E0612FCE010E946D0422E042E0612FFA
:100FB000CE010E946D0422E043E0612FCE010E9429
:100FC0006D04CE010E94CE028F2D902F0E94B90198
:100FD000CE010E94A00322E040E0612FCE010E94DA
:100FE0006D0422E041E0612FCE010E946D0421E0FA
:100FF00042E0612FCE010E946D0421E043E0612FA9
:10100000CE010E946D04CE010E94CE028F2D902F42
:10101000DF91CF911F910F91FF900C94B9012F9206
:101020003F924F925F926F927F928F929F92AF9278
:10103000BF92CF92DF92EF92FF920F931F93CF93C5
:10104000DF93CDB7DEB7ED970FB6F894DEBF0FBED6
:10105000CDBF8C01262ECA0157FD01969595879527
:10106000782E692E20E040E060E0CE0101960E94DB
:101070004516412C512C312CE6C2C8010E94A00318
:10108000282D40E060E0CE0101960E947816BE0156
:101090006F5F7F4FC8010E94C416C8010E94CE0234
:1010A000872D962D0E94B9018FEF881A980A02C0E9
:1010B000812C912CF801808190E088169906ECF241
:1010C0007401F1E0EF1AF108CC24C394D12C1AC0BA
:1010D000C8010E94A0032E2D4C2D60E0CE01019688
:1010E0000E947816BE016F5F7F4FC8010E94C41630
:1010F000C8010E94CE02872D962D0E94B9018FEF64
:10110000C81AD80AF801808190E0C816D90604F3FD
:101110007601F1E0EF1AF10882E0881A91081AC00E
:10112000C8010E94A003282D4E2D60E0CE0101963B
:101130000E947816BE016F5F7F4FC8010E94C416DF
:10114000C8010E94CE02872D962D0E94B901E1E0D0
:101150008E1A910897FEE4CF7401FFEFEF1AFF0A91
:1011600082E0C81AD1081AC0C8010E94A0032E2D1F
:101170004C2D60E0CE0101960E947816BE016F5F93
:101180007F4FC8010E94C416C8010E94CE02872D5D
:10119000962D0E94B901E1E0CE1AD1081C141D045D
:1011A0001CF37601FFEFEF1AFF0A82E0880E911C14
:1011B0001AC0C8010E94A003282D4E2D60E0CE0168
:1011C00001960E947816BE016F5F7F4FC8010E9492
:1011D000C416C8010E94CE02872D962D0E94B90127
:1011E000EFEF8E1A9E0AF801808190E00197881631
:1011F0009906FCF27401F1E0EF1AF10882E0C80EE2
:10120000D11C1AC0C8010E94A0032E2D4C2D60E0F5
:10121000CE0101960E947816BE016F5F7F4FC80114
:101220000E94C416C8010E94CE02872D962D0E94EE
:10123000B901EFEFCE1ADE0AF801808190E0019744
:10124000C816D906FCF25601F1E0AF1AB10882E0E7
:10125000881A91081AC0C8010E94A003282D4A2D9F
:1012600060E0CE0101960E947816BE016F5F7F4F4D
:10127000C8010E94C416C8010E94CE02872D962D77
:101280000E94B901E1E08E1A9108181419041CF3A8
:101290007401FFEFEF1AFF0AC8010E94A003BA2CE5
:1012A0002E2D4A2D61E0CE0101960E947816BE01D6
:1012B0006F5F7F4FC8010E94C416C8010E94CE0212
:1012C000872D962D0E94B90182E0C81AD108C80165
:1012D0000E94A0032E2D4C2D61E0CE0101960E94AC
:1012E0007816BE016F5F7F4FC8010E94C416C80107
:1012F0000E94CE02872D962D0E94B901C8010E943E
:10130000A003E2E08E0E911C282D4C2D61E0CE0151
:1013100001960E947816BE016F5F7F4FC8010E9440
:10132000C416C8010E94CE02872D962D0E94B901D5
:10133000C8010E94A003282D4A2D61E0CE0101962C
:101340000E947816BE016F5F7F4FC8010E94C416CD
:10135000C8010E94CE02872D962D0E94B901C801B6
:101360000E94A003282D4A2D62E0CE0101960E9422
:101370007816BE016F5F7F4FC8010E94C416C80176
:101380000E94CE02872D962D0E94B901C8010E94AD
:10139000A003282D4C2D62E0CE0101960E94781604
:1013A000BE016F5F7F4FC8010E94C416C8010E9432
:1013B000CE02872D962D0E94B901C8010E94A0037C
:1013C0002E2D4C2D62E0CE0101960E947816BE01B2
:1013D0006F5F7F4FC8010E94C416C8010E94CE02F1
:1013E000872D962D0E94B901C8010E94A0032E2DC1
:1013F0004A2D62E0CE0101960E947816BE016F5F11
:101400007F4FC8010E94C416C8010E94CE02872DDA
:10141000962D0E94B901C8010E94A0032E2D4A2DCD
:1014200063E0CE0101960E947816BE016F5F7F4F88
:10143000C8010E94C416C8010E94CE02872D962DB5
:101440000E94B9011AC0C8010E94A0032E2D4B2D85
:1014500063E0CE0101960E947816BE016F5F7F4F58
:10146000C8010E94C416C8010E94CE02872D962D85
:101470000E94B901FFEFEF1AFF0AF801808190E0A6
:101480000197E816F906FCF25701F1E0AF1AB1082E
:101490001AC0C8010E94A0032A2D4C2D63E0CE0182
:1014A00001960E947816BE016F5F7F4FC8010E94AF
:1014B000C416C8010E94CE02872D962D0E94B90144
:1014C00081E0C81AD1081C141D041CF35601EFEF6B
:1014D000AE1ABE0AF2E0EF1AF1081AC0C8010E9463
:1014E000A0032E2D4A2D63E0CE0101960E947816AE
:1014F000BE016F5F7F4FC8010E94C416C8010E94E1
:10150000CE02872D962D0E94B90181E0E81AF108DC
:10151000F7FEE4CF5701EFEFAE1ABE0AF2E0CF0EAE
:10152000D11C1AC0C8010E94A0032A2D4C2D63E0D3
:10153000CE0101960E947816BE016F5F7F4FC801F1
:101540000E94C416C8010E94CE02872D962D0E94CB
:10155000B9018FEFC81AD80AF801808190E0C81647
:10156000D90604F35601F1E0AF1AB10882E0E80EA3
:10157000F11C1AC0C8010E94A0032E2D4A2D63E061
:10158000CE0101960E947816BE016F5F7F4FC801A1
:101590000E94C416C8010E94CE02872D962D0E947B
:1015A000B901EFEFEE1AFE0AF801808190E0E8162B
:1015B000F90604F35701F1E0AF1AB10882E0C81A46
:1015C000D1081AC0C8010E94A0032A2D4C2D63E047
:1015D000CE0101960E947816BE016F5F7F4FC80151
:1015E0000E94C416C8010E94CE02872D962D0E942B
:1015F000B901E1E0CE1AD108FFEFCF16DF0611F7EF
:1016000082E0E81AF1081AC0C8010E94A0032E2D3A
:1016100040E063E0CE0101960E947816BE016F5F44
:101620007F4FC8010E94C416C8010E94CE02872DB8
:10163000962D0E94B901E1E0EE1AF108F7FEE4CF21
:10164000FFEF4F1A5F0A421453040CF431CDED96AC
:101650000FB6F894DEBF0FBECDBFDF91CF911F91C3
:101660000F91FF90EF90DF90CF90BF90AF909F9041
:101670008F907F906F905F904F903F902F90089544
:101680008F929F92AF92BF92CF92DF92EF92FF9292
:101690000F931F93CF93DF93EC018B01A42E69016D
:1016A0000E94A003E12CF12C43E0942E60C0E114D1
:1016B000F10431F1C7010197FC01F595E795F59526
:1016C000E7956CEFAF0164039001659F300D112425
:1016D000280F391FAA2021F081E0A81207C003C0FB
:1016E00040E06E2F07C04E2F60E004C0692D621BE2
:1016F00020E04E2FCE010E941004CE010E94CE02A7
:1017000043E06A2DCE010E940A05812C2BC00150B6
:101710001109AA2021F021E0A21209C004C02B2D3A
:1017200043E0682D08C02B2D482D63E004C0692DCF
:101730006B1923E0482DCE010E941004CE010E94B7
:10174000CE02C6010E94B90143E0B41621F0B39461
:1017500001151105E1F653E0851631F0839401156A
:10176000110511F0B12CD3CF6FEFE61AF60A01156F
:10177000110509F09CCF8FE0282F2C9DC0012D9DD5
:10178000900D1124DF91CF911F910F91FF90EF9059
:10179000DF90CF90BF90AF909F908F900C94B90145
:1017A0002F923F924F925F926F927F928F929F9271
:1017B000AF92BF92CF92DF92EF92FF920F931F935F
:1017C000CF93DF93CDB7DEB7CD57D1090FB6F894DD
:1017D000DEBF0FBECDBF7C012B01CE01CE960E9495
:1017E00053008E0108591F4F20E030E040E050E0E8
:1017F00063E070E0C8010E94EE1B22E030E043E0AD
:1018000050E062E070E0C80106960E94EE1B21E005
:1018100041E061E0AA24A394B12CAC0EBD1EC50129
:101820000E94451644E0C42ED12C150138010E94B7
:10183000C71C9C01ED968FAFED97EE963FAFEE97EC
:101840000E94C71C5C010E94C71C4C01ED962FAD85
:10185000ED97EE963FADEE97C901B6010E944E1C82
:101860009C01C501B6010E944E1CFC01C401B601D9
:101870000E944E1CAF01BC01CE018C589F4F0E94AC
:10188000EE1BE5962FADE597E6963FADE697E7961A
:101890004FADE797E8965FADE897E9966FADE997AA
:1018A000EA967FADEA97C1010E94201721E030E05F
:1018B000892B11F420E030E0C901E6966EAD7FADD2
:1018C000E697E8964EAD5FADE897EA962EAD3FAD50
:1018D000EA97D301ED91FC9111976E177F0781F480
:1018E0001296ED91FC9113974E175F0749F41496E9
:1018F000ED91FC9115972E173F0711F481E090E0D0
:10190000D8011696ED91FC9117976E177F0781F419
:1019100018966D917C9119974617570749F41A96B6
:101920004D915C911B972417350711F481E090E0ED
:10193000892B09F07CCFCE01CE960E9455018823D9
:1019400009F46AC090E09C016D960FAC6D9702C0DF
:10195000359527950A94E2F720FD03C002E010E0D8
:1019600002C000E010E09C01A1960FACA19702C05C
:10197000359527950A94E2F720FF02C002E010E0B7
:101980009C016F960FAC6F9702C0359527950A940E
:10199000E2F720FF02C001E010E09C01A3960FAC2B
:1019A000A39702C0359527950A94E2F720FF02C05D
:1019B00003E010E09C01A5960FACA59702C03595F9
:1019C00027950A94E2F720FF02C004E010E0A796F2
:1019D0000FACA79702C0959587950A94E2F780FF10
:1019E00002C005E010E0C20157FC0196FC01F5952C
:1019F000E795EC96FFAFEEAFEC9744244394512C5F
:101A000088248394912CCC24C394D12CAA24A3940D
:101A1000B12C612C712C0DC0C7010E94A00321E0E4
:101A200041E061E0C7010E941004C7010E94CE029C
:101A300082CFCE01CE960E945501482F212C312C09
:101A400012C082E090E0EE964FAFEE970E94B9018F
:101A5000CE01CE960E945501EE964FADEE97482BE3
:101A6000FFEF2F1A3F0AEC962EAD3FADEC972216F2
:101A700033063CF30115110519F002301105E9F4A4
:101A8000842F90E09C016F960FAC6F9702C0359544
:101A900027950A94E2F720FF02C001E010E09C01C4
:101AA000A3960FACA39702C0359527950A94E2F749
:101AB00020FF25C003E010E022C00130110519F01D
:101AC00003301105A1F5842F90E09C016D960FACB9
:101AD0006D9702C0359527950A94E2F720FF02C062
:101AE00000E010E09C01A1960FACA19702C03595D3
:101AF00027950A94E2F720FF02C002E010E09C0163
:101B0000A5960FACA59702C0359527950A94E2F7E4
:101B100020FF02C004E010E0A7960FACA79702C018
:101B2000959587950A94E2F780FD65C039C09801C4
:101B3000245031092230310598F5842F90E09C0122
:101B40006F960FAC6F9702C0359527950A94E2F710
:101B500020FF02C001E010E09C01A3960FACA39708
:101B600002C0359527950A94E2F720FF02C003E0F2
:101B700010E09C016D960FAC6D9702C035952795CE
:101B80000A94E2F720FF02C000E010E0A1960FAC3B
:101B9000A19702C0959587950A94E2F780FD1DC034
:101BA0000330110501F13CF40130110591F00230D0
:101BB000110539F412C004301105C9F005301105C2
:101BC000D1F031E0A31AB108B7FE1BC005E010E068
:101BD000F9C081E0C81AD10814C19FEFA91AB90A47
:101BE00002E010E00EC1AFEFCA1ADA0A0AC1BFEF75
:101BF0008B1A9B0A06C1E1E08E1A910805E010E0FD
:101C000000C197FCE3CFF4E0AF16B104FCF624E08A
:101C1000C216D104DCF634E083169104BCF64528E4
:101C200081F0282D4C2D6A2DCE0101960E94781648
:101C3000E6968EAD9FADE697A816B90609F0A7C047
:101C400007C0CE0101960E94F116892B51F3BECF39
:101C5000E8968EAD9FADE897C816D90609F097C0F3
:101C6000EA968EAD9FADEA978816990609F08FC067
:101C70008FEF681A780ACE0101960E946017E4E09F
:101C80004E2E512C0E94C71CAC01EE968FAFEE97E2
:101C9000ED965FAFED970E94C71C1C010E94C71C08
:101CA0009C01EE964FADEE97ED965FADED97CA01B4
:101CB000B2010E944E1CFC01C101B2010E944E1CE7
:101CC0001C01C901B2010E944E1C9F01A101BC016F
:101CD000CE018C589F4F0E94EE1BE5962FADE597E5
:101CE000E6963FADE697E7964FADE797E8965FAD8E
:101CF000E897E9966FADE997EA967FADEA97CE014E
:101D000001960E94201721E030E0892B11F420E099
:101D100030E0C901E6964EAD5FADE697E8962EAD90
:101D20003FADE897EA96EEADFFADEA97AA966EADA5
:101D30007FADAA974617570781F4AC966EAD7FAD7D
:101D4000AC972617370749F4AE966EAD7FADAE97C8
:101D5000E617F70711F481E090E0E0966EAD7FADF5
:101D6000E0974617570781F4E2964EAD5FADE297D4
:101D70002417350749F4E4962EAD3FADE497E217FA
:101D8000F30711F481E090E0892B09F07BCFC701C4
:101D90000E94A003E9962FADE997E7964FADE7972C
:101DA000E5966FADE597C7010E941004BE016F5F15
:101DB0007F4FC7010E94C416C7010E94CE02412C6A
:101DC000512C37CEC7010E94D903C7010E94CE0211
:101DD00089E190E00E94B901C7010E94A003C701F8
:101DE0000E94CE0289E190E00E94B90101501109E0
:101DF00049F722E330E041E0B301C7010E94400B04
:101E000003C0D7FEFECEE2CEC358DF4F0FB6F89424
:101E1000DEBF0FBECDBFDF91CF911F910F91FF901D
:101E2000EF90DF90CF90BF90AF909F908F907F907A
:101E30006F905F904F903F902F9008953F924F92F8
:101E40005F926F927F928F929F92AF92BF92CF924A
:101E5000DF92EF92FF920F931F93CF93DF93CDB753
:101E6000DEB7C35FD1090FB6F894DEBF0FBECDBF9A
:101E70008C017B01CE018F579F4F0E945300CE01F2
:101E800001960E94F41861E0CE018A539F4F0E9490
:101E9000801724E030E041E050E061E070E0CE01E6
:101EA00083519F4F0E94EE1BC351DF4F2881CD5EAF
:101EB000D040C251DF4F3881CE5ED040C151DF4F9C
:101EC0004881CF5ED040C051DF4F5881C05FD040C5
:101ED000CF50DF4F6881C15FD040CE50DF4F788157
:101EE000C25FD040CE018A539F4F0E94B717C701EF
:101EF000F7FC01965C01B594A794C12CD12C512C10
:101F0000612C21E076E0772EE6EC8E2E912C8C0E63
:101F10009D1E82E1880E911CFBE13F2E2223D1F110
:101F20000E94C71C62E070E00E944E1C682FCE0128
:101F30008A539F4F0E94801724E030E041E050E038
:101F400061E070E0CE0183519F4F0E94EE1BC351B0
:101F5000DF4F2881CD5ED040C251DF4F3881CE5E49
:101F6000D040C151DF4F4881CF5ED040C051DF4FDC
:101F70005881C05FD040CF50DF4F6881C15FD040F3
:101F8000CE50DF4F7881C25FD040CE018A539F4F41
:101F90000E94B717CE018F579F4F0E945501482EC0
:101FA000E12CF12C0DC082E090E00E94B901CE013D
:101FB0008F579F4F0E945501482A9FEFE91AF90A4F
:101FC000EA14FB0484F3F401DE01A951BF4F872D0D
:101FD00001900D928A95E1F7E42CF12CC156DF4F68
:101FE0002881CF59D040C701022E02C09595879510
:101FF0000A94E2F780FFB8C0C701CD55DF4F0880D3
:10200000C35AD04002C0959587950A94E2F780FFA5
:1020100024C0BE016A537F4FCE0101960E94921ADE
:10202000882309F460C2C452DF4F28813981CC5D16
:10203000D04021503109C652DF4F48815981CA5DD5
:10204000D040C852DF4F68817981C85DD040CE0151
:1020500089519F4F0E94EE1B23C2862D90E002C043
:10206000959587952A95E2F780FD7EC0FE01E9519E
:10207000FF4FDE01AF51BF4F872D01900D928A9522
:10208000E1F7C452DF4F28813981CC5DD040C65280
:10209000DF4F48815981CA5DD040C852DF4F688107
:1020A0007981C85DD04061507109CE018F519F4F39
:1020B0000E94EE1BCF51DF4F2881C15ED040CE5130
:1020C000DF4F3881C25ED040CD51DF4F4881C35EC3
:1020D000D040CC51DF4F5881C45ED040CB51DF4F50
:1020E0006881C55ED040CA51DF4F7881C65ED0405E
:1020F000CE018A539F4F0E94B717BE016A537F4F8C
:10210000CE0101960E94011A81110BC0FE01EF5110
:10211000FF4FDE01A951BF4F872D01900D928A9587
:10212000E1F7C951DF4F2881C75ED040C851DF4F6A
:102130003881C85ED040C751DF4F4881C95ED0406A
:10214000C651DF4F5881CA5ED040C551DF4F68810C
:10215000CB5ED040C451DF4F7881CC5ED040CE0101
:102160008A539F4F0E94B717CF55DF4F2881C15A1E
:10217000D040C701022E02C0959587950A94E2F7D8
:1021800080FF87C0862D90E002C0959587952A959F
:10219000E2F780FD7EC0FE01E951FF4FDE01AF5145
:1021A000BF4F872D01900D928A95E1F7C452DF4F02
:1021B00028813981CC5DD040C652DF4F488159819A
:1021C000CA5DD04041505109C852DF4F68817981C2
:1021D000C85DD040CE018F519F4F0E94EE1BCF5162
:1021E000DF4F2881C15ED040CE51DF4F3881C25EC3
:1021F000D040CD51DF4F4881C35ED040CC51DF4F3E
:102200005881C45ED040CB51DF4F6881C55ED0405D
:10221000CA51DF4F7881C65ED040CE018A539F4FAE
:102220000E94B717BE016A537F4FCE0101960E94EC
:10223000011A81110BC0FE01EF51FF4FDE01A951C0
:10224000BF4F872D01900D928A95E1F7C951DF4F5D
:102250002881C75ED040C851DF4F3881C85ED0406A
:10226000C751DF4F4881C95ED040C651DF4F58810A
:10227000CA5ED040C551DF4F6881CB5ED040C451AB
:10228000DF4F7881CC5ED040CE018A539F4F0E94B1
:10229000B717CD55DF4F2881C35AD040C701022E52
:1022A00002C0959587950A94E2F780FF87C0862D36
:1022B00090E002C0959587952A95E2F780FD7EC053
:1022C000FE01E951FF4FDE01AF51BF4F872D019055
:1022D0000D928A95E1F7C452DF4F28813981CC5D98
:1022E000D040C652DF4F48815981CA5DD040C852A4
:1022F000DF4F68817981C85DD0406F5F7F4FCE012D
:102300008F519F4F0E94EE1BCF51DF4F2881C15E3E
:10231000D040CE51DF4F3881C25ED040CD51DF4F2B
:102320004881C35ED040CC51DF4F5881C45ED0405D
:10233000CB51DF4F6881C55ED040CA51DF4F7881F5
:10234000C65ED040CE018A539F4F0E94B717BE0190
:102350006A537F4FCE0101960E94011A81110BC072
:10236000FE01EF51FF4FDE01A951BF4F872D0190B4
:102370000D928A95E1F7C951DF4F2881C75ED040A1
:10238000C851DF4F3881C85ED040C751DF4F488108
:10239000C95ED040C651DF4F5881CA5ED040C5519A
:1023A000DF4F6881CB5ED040C451DF4F7881CC5E77
:1023B000D040CE018A539F4F0E94B717CB55DF4FB5
:1023C0002881C55AD040C701022E02C09595879535
:1023D0000A94E2F780FF87C0862D90E002C09595B1
:1023E00087952A95E2F780FD7EC0FE01E951FF4FF7
:1023F000DE01AF51BF4F872D01900D928A95E1F715
:10240000C452DF4F28813981CC5DD040C652DF4FA6
:1024100048815981CA5DD0404F5F5F4FC852DF4F3E
:1024200068817981C85DD040CE018F519F4F0E9455
:10243000EE1BCF51DF4F2881C15ED040CE51DF4F20
:102440003881C25ED040CD51DF4F4881C35ED0405D
:10245000CC51DF4F5881C45ED040CB51DF4F6881F3
:10246000C55ED040CA51DF4F7881C65ED040CE01F4
:102470008A539F4F0E94B717BE016A537F4FCE0108
:1024800001960E94011A81110BC0FE01EF51FF4F0E
:10249000DE01A951BF4F872D01900D928A95E1F77A
:1024A000C951DF4F2881C75ED040C851DF4F388106
:1024B000C85ED040C751DF4F4881C95ED040C65189
:1024C000DF4F5881CA5ED040C551DF4F6881CB5E77
:1024D000D040C451DF4F7881CC5ED040CE018A53CA
:1024E0009F4F0E94B717C955DF4F2881C75AD04068
:1024F000C701022E02C0959587950A94E2F780FFE6
:102500002FC0862D90E002C0959587952A95E2F719
:1025100080FD26C0FE01EA53FF4FDE01A555BF4FE7
:10252000832D01900D928A95E1F762E070E0CE0173
:1025300085559F4F0E94D517BE0165557F4FCE012F
:1025400001960E94011A81110BC0FE01E555FF4F53
:10255000DE01AA53BF4F832D01900D928A95E1F7BA
:10256000C755DF4F2881C95AD040022E02C0F594CA
:10257000E7940A94E2F7E0FE2FC0862D90E002C0B7
:10258000959587952A95E2F780FD26C0FE01EA53CE
:10259000FF4FDE01A555BF4F832D01900D928A9507
:1025A000E1F760E070E0CE0185559F4F0E94D5179E
:1025B000BE0165557F4FCE0101960E94011A81111F
:1025C0000BC0FE01E555FF4FDE01AA53BF4F832D1F
:1025D00001900D928A95E1F783E1851508F063C0BB
:1025E000BE016A537F4FCE0101960E94921A882342
:1025F000F1F1C452DF4F28813981CC5DD0402150A8
:102600003109C652DF4F48815981CA5DD040C85256
:10261000DF4F68817981C85DD040CE0189519F4FDD
:102620000E94EE1BC951DF4F2881C75ED040C851C0
:10263000DF4F3881C85ED040C751DF4F4881C95E47
:10264000D040C651DF4F5881CA5ED040C551DF4FE0
:102650006881CB5ED040C451DF4F7881CC5ED040E2
:10266000CE018A539F4F0E94B717512C1CC0BE0148
:102670006A537F4FCE0101960E942D19BE016F5FF4
:102680007F4FC8010E94C81A81118F5F889FC00CBC
:10269000D11C1124CE0101960E94C61B811123C0BA
:1026A000512C21E001C020E0C801CD50DF4F28832C
:1026B000C35FD0400E94A003BE016F5F7F4FC8017F
:1026C0000E94BD19BE016A537F4FC8010E94831842
:1026D000C8010E94CE025394642CCD50DF4F288154
:1026E000C35FD0401BCC55E0E52EF12CC8010E9401
:1026F000D903C8010E94CE0289E190E00E94B9018D
:10270000C8010E94A003C8010E94CE0289E190E0A6
:102710000E94B90191E0E91AF10841F722E330E0A3
:1027200041E0B601C8010E94400BCD50DF4F0FB60B
:10273000F894DEBF0FBECDBFDF91CF911F910F91F7
:10274000FF90EF90DF90CF90BF90AF909F908F90D1
:102750007F906F905F904F903F9008950F931F93DD
:10276000CF93DF93EC018B010E94D903CE010E942D
:10277000CE02C8010E94B901CE010E94A003CE0181
:102780000E94CE02C8010E94B901CE010E94A0039E
:1027900060E0CE010E94290461E0CE010E9429047C
:1027A000CE010E94CE02C8010E94B901CE010E9452
:1027B000A00362E0CE010E94290463E0CE010E94E2
:1027C0002904CE010E94CE02C8010E94B901CE01A7
:1027D0000E94A00340E060E0CE010E94B40441E00A
:1027E00060E0CE010E94B404CE010E94CE02C80176
:1027F0000E94B901CE010E94A00342E060E0CE0138
:102800000E94B40443E060E0CE010E94B404CE0113
:102810000E94CE02C801DF91CF911F910F910C94BD
:10282000B901CF93DF93CDB7DEB7AA970FB6F8946F
:10283000DEBF0FBECDBF7C018B01CE0101960E9491
:102840005300CE0101960E945501482E680117FFE2
:1028500003C02FEFC21AD20AD594C794580117FFAC
:1028600003C083E0A80EB11CB594A794B594A794B7
:10287000612C95E0592E8824839499249394CE0159
:1028800001960E945501782E212C312C0CC082E03B
:1028900090E00E94B901CE0101960E945501782A6C
:1028A0002FEF221A320A2C143D048CF3272D30E02E
:1028B0005F8DC901052E02C0959587950A94E2F7B0
:1028C00080FF0CC0842D90E002C0959587955A95A5
:1028D000E2F780FD03C0851408F4839449A1C9017F
:1028E000042E02C0959587950A94E2F780FF14C0E4
:1028F000842D90E002C0959587954A95E2F780FD7A
:102900000BC081E0981621F09A948824839404C027
:1029100088248394B9E09B2E6BA1C901062E02C0C6
:10292000959587950A94E2F780FF0DC0442D50E0FD
:1029300002C0559547956A95E2F740FD04C081E0D5
:10294000881508F48A946DA1C901062E02C09595D8
:1029500087950A94E2F780FF14C0442D50E002C02E
:10296000559547956A95E2F740FD0BC089E08915BA
:1029700020F093948824839404C088248394992419
:1029800093944FA1042E02C0359527950A94E2F73F
:1029900020FF56C0842D90E002C0959587954A95FA
:1029A000E2F780FD4DC023E0921601F1291538F0C1
:1029B00081E0981669F022E0921242C010C085E0D2
:1029C000981639F19816C0F026E0921239C02AC044
:1029D000682D6150A801C7010E94FA0531C0682D19
:1029E0006150A801C7010E9436072AC0A801682DBE
:1029F000C7010E940F0824C08AEF90E00E94B9012D
:102A0000809EB001819E700D1124C7010E94D00BE1
:102A100017C08A9CB0018B9C700D1124C7010E94C5
:102A20001E0F0EC0809EC001819E900D112425E0D6
:102A3000289FB001299F700D1124C7010E94AE1379
:102A4000C7010E94A00367FC0EC022E041E0692D8F
:102A500070E0C7010E94740520E041E0682D70E03D
:102A6000C7010E947405C7010E94CE02E92DE35000
:102A7000E43028F4F0E0EC5FFE4F508002C0A3E0A9
:102A80005A2E8EE1680E472CFACEF89414BC15BC71
:102A900082E080936E0085B5846085BD84B58260D8
:102AA00084BD80E187BD16BCE1E8F0E080818260F2
:102AB0008083789408951F920F920FB60F9211247D
:102AC0002F933F934F935F936F937F938F939F9336
:102AD000AF93BF93EF93FF938BB1807F8BB910922D
:102AE00085001092840060917B0170E0660F771F73
:102AF0006D587E4F40E150E08EE791E00E94D31583
:102B0000809184009091850090937D0180937C0159
:102B10002BB130917B0181E090E0032E01C0880F42
:102B20000A94EAF7282B2BB980917B018F5F809361
:102B30007B0180917B01843011F410927B01FF9125
:102B4000EF91BF91AF919F918F917F916F915F9125
:102B50004F913F912F910F900FBE0F901F9018959E
:102B600087B18FEF87B98FE08AB91BB882E391E014
:102B70000E94C40125E043E064E08EE791E00E94FA
:102B8000CE1588E091E00E9453000E9445156DE249
:102B900070E082E391E00E941114F9CFFC016083A0
:102BA000418322830895DF92EF92FF920F931F9348
:102BB000CF93DF93FC01CA01019733E09595879588
:102BC0003A95E1F7182FA1E0B0E09D01008002C026
:102BD000220F331F0A94E2F7022F0095028002C0F1
:102BE000AA0FBB1F0A94E2F7FA2EEA2EE094D22E27
:102BF00020E030E025C080E090E0EB01CB0FD11D5C
:102C0000B8B1B023B8B9A881B0E0082E02C0B5951C
:102C1000A7950A94E2F7B8B1A0FF02C0BF2901C08E
:102C2000BE21B8B9B8B1BD29B8B9415051098730F2
:102C3000910521F001964115510511F72F5F3F4F86
:102C4000B12FB21BBF3F19F041155105A1F648B194
:102C500081E090E09C01018002C0220F331F0A94A2
:102C6000E2F72095242328B928B1018002C0880FFB
:102C7000991F0A94E2F7282B28B9DF91CF911F9171
:102C80000F91FF90EF90DF900895CF92DF92EF9237
:102C9000FF920F931F93CF93DF938C01F62EE42EB8
:102CA000D22E83E0F80184AFC0E0D0E086E0C82EE9
:102CB00010C0CC9EC001CD9E900D11242D2D30E072
:102CC0004E2D50E06F2D70E0800F911F0E94EE1B83
:102CD0002196F80184AD90E0C817D90754F3DF912D
:102CE000CF911F910F91FF90EF90DF90CF900895BB
:102CF000EF92FF920F931F93CF93DF9300D000D0FA
:102D000000D0CDB7DEB78C0130E050E070E0CE01EE
:102D100001960E94EE1BF80184AD482F50E0B801E7
:102D2000F6E08F9F600D711D112420E030E080E0FF
:102D300090E0E6E0FE2E0AC0DB01A20FB31FFD010A
:102D40003697EF2C01900D92EA94E1F70196265008
:102D50003109FA01E81BF90B1E161F066CF386E019
:102D6000FE013196D80101900D928A95E1F72696E1
:102D70000FB6F894DEBF0FBECDBFDF91CF911F918C
:102D80000F91FF90EF900895DF92EF92FF920F93D3
:102D90001F93CF93DF937C018B01C0E0D0E0F6E07E
:102DA000DF2E11C0DC9EF001DD9EF00D1124E00F3E
:102DB000F11F208131814281538164817581C70176
:102DC0000E94F61B2196F80184AD90E0C817D90740
:102DD0004CF3DF91CF911F910F91FF90EF90DF9017
:102DE0000895DC01DC962C91DC9730E0FC0181E059
:102DF00090E01CC06D917C911197468157816417BA
:102E0000750791F412966D917C91139740855185C9
:102E10006417750749F414966D917C911597428556
:102E200053856417750741F001963696821793070C
:102E30000CF320E030E002C021E030E0C901089549
:102E40000F931F93CF93DF9300D000D000D0CDB766
:102E5000DEB729833A834B835C836D837E83FC01D9
:102E600024AD30E049815A816B817C81AD81BE8186
:102E700080E090E011C0008111814017510751F4AA
:102E8000028113816017710729F404811581A0174D
:102E9000B10741F0019636968217930764F320E05C
:102EA00030E002C021E030E0C90126960FB6F89468
:102EB000DEBF0FBECDBFDF91CF911F910F9108955F
:102EC000FC0124AD2A30D8F42F5F24AF30E0A901F3
:102ED0004150510966E0649FD001659FB00D1124F7
:102EE000A80FB91F22503109629FF001639FF00DB6
:102EF0001124E80FF91F01900D926A95E1F70895EA
:102F0000CF93DF93EC0120E030E0613029F441E021
:102F100050E060E070E004C040E050E06FEF7FEF11
:102F2000CE010E94EE1B20E030E040E050E060E087
:102F300070E0CE0106960E94EE1B20E030E040E0FB
:102F400050E061E070E0CE010C960E94EE1B20E0A4
:102F500030E040E050E060E070E0CE0142960E9438
:102F6000EE1B188E198E1A8EDF91CF910895CF9394
:102F7000DF9300D000D000D0CDB7DEB729833A83ED
:102F80004B835C836D837E832D813E814B815C818D
:102F900069817A81429626960FB6F894DEBF0FBEFD
:102FA000CDBFDF91CF910C94EE1BFC016130710518
:102FB00061F06230710581F0672BA1F4828D8F5F23
:102FC000828F843078F0128E0895818D8F5F818F8B
:102FD000843040F0118E0895808D8F5F808F843013
:102FE00008F0108E0895CF92DF92EF92FF920F9328
:102FF0001F93CF93DF93CDB7DEB72C970FB6F8941E
:10300000DEBF0FBECDBF8B0126E0289FF001299FB8
:10301000F00D1124E60FF71F248135814281538181
:10302000608171816E0187E0C80ED11CC6010E94CB
:10303000EE1BE12CF12C0FC02F81388549855A8574
:103040006B857C85719561957109C6010E94EE1BA7
:10305000EFEFEE1AFE0AF801228D30E0E216F306D9
:103060005CF3E12CF12C10C029853A854B855C85F9
:103070005195419551096F817885CE0107960E943F
:10308000EE1BFFEFEF1AFF0AF801818D90E0E816C2
:10309000F90654F3E12CF12C10C02B853C854F81AF
:1030A000588569857A85719561957109CE01079674
:1030B0000E94EE1BFFEFEF1AFF0AF801808D90E0EF
:1030C000E816F90654F386E0FE013796DE01119604
:1030D00001900D928A95E1F729813A814B815C81BB
:1030E0006D817E8180E090E02C960FB6F894DEBF73
:1030F0000FBECDBFDF91CF911F910F91FF90EF9049
:10310000DF90CF9008957F928F929F92AF92BF925F
:10311000CF92DF92EF92FF920F931F93CF93DF93A3
:10312000CDB7DEB72C970FB6F894DEBF0FBECDBF7C
:103130004C016B01A12CB12C86E0782EB601C501A3
:103140000E94F3172F83388749875A876B877C87BC
:10315000FE013796DE011196872D01900D928A951A
:10316000E1F7F601E288F388048915892689378911
:1031700049815A816B817C818D819E810E940A1CCC
:103180002F83388749875A876B877C87FE0137965C
:10319000DE011196872D01900D928A95E1F7298124
:1031A0003A814B815C816D817E81C4010E94F61B56
:1031B000FFEFAF1ABF0A83E0A816B10409F0BECF33
:1031C0002C960FB6F894DEBF0FBECDBFDF91CF9126
:1031D0001F910F91FF90EF90DF90CF90BF90AF9035
:1031E0009F908F907F9008950F9628E030E0FC012B
:1031F0003F971082FC013E971082FC013D971082A0
:10320000FC013C971082FC013B971082FC013A972D
:103210001082FC0139971082FC0138971082FC0162
:1032200037971082FC0136971082FC013597108287
:10323000FC0134971082FC0133971082FC01329715
:103240001082FC0131971082FC011082215031095B
:1032500040962115310559F608956F927F928F920D
:103260009F92AF92BF92CF92DF92EF92FF920F9315
:103270001F93CF93DF93CDB7DEB72C970FB6F8949B
:10328000DEBF0FBECDBF4C016B01A12CB12C66E09F
:10329000762E66246394B601C5010E94F3172F832E
:1032A000388749875A876B877C87FE013796DE010E
:1032B0001196872D01900D928A95E1F7F601E2882B
:1032C000F388048915892689378949815A816B8158
:1032D0007C818D819E810E940A1C2F8338874987BB
:1032E0005A876B877C87FE013796DE011196872D02
:1032F00001900D928A95E1F729813A818B819C8119
:10330000ED81FE8137FD1CC097FD1AC0F7FD18C086
:1033100024303105ACF48430910594F4E830F105A3
:103320007CF4EE0FFF1FEE0FFF1FE20FF31FEE0FF7
:10333000FF1FEE0FFF1FE80FF91FE80DF91D608258
:10334000FFEFAF1ABF0A83E0A816B10409F0A3CFBC
:103350002C960FB6F894DEBF0FBECDBFDF91CF9194
:103360001F910F91FF90EF90DF90CF90BF90AF90A3
:103370009F908F907F906F9008958F929F92AF92C1
:10338000BF92CF92DF92EF92FF920F931F93CF9352
:10339000DF936C01EB01812C23C0F501E00FF11FDD
:1033A0008081882331F0282D402F692DC6010E948D
:1033B00010040F5F1F4F0430110579F784E0E80E09
:1033C000F11C939484E0981631F000E010E057016E
:1033D000AC0EBD1EE2CF6096839484E0881621F087
:1033E000912CE12CF12CF1CFDF91CF911F910F9116
:1033F000FF90EF90DF90CF90BF90AF909F908F9015
:1034000008957F928F929F92AF92BF92CF92DF9258
:10341000EF92FF920F931F93CF93DF93CDB7DEB759
:103420002C970FB6F894DEBF0FBECDBF4C016B01D9
:10343000A12CB12CB6E07B2EB601C5010E94F3177A
:103440002F83388749875A876B877C87FE01379699
:10345000DE011196872D01900D928A95E1F7F60114
:10346000E288F388048915892689378949815A8138
:103470006B817C818D819E810E940A1C2F833887FD
:1034800049875A876B877C87FE013796DE01119644
:10349000872D01900D928A95E1F729813A818B81E0
:1034A0009C81ED81FE81F7FD28C037FD26C097FD88
:1034B00024C0243031050CF584309105F4F4E83053
:1034C000F1058CF4EE0FFF1FEE0FFF1FE20FF31F4D
:1034D000EE0FFF1FEE0FFF1FE80FF91FE80DF91D9C
:1034E0008081813051F0FFEFAF1ABF0A83E0A81648
:1034F000B10409F0A1CF80E001C081E02C960FB6A5
:10350000F894DEBF0FBECDBFDF91CF911F910F9119
:10351000FF90EF90DF90CF90BF90AF909F908F90F3
:103520007F9008950F931F93CF93DF93CDB7DEB7AE
:103530006B970FB6F894DEBF0FBECDBF8C018BE149
:10354000FB01DE01119601900D928A95E1F72F891A
:10355000388D215031094D895E896B897C89CE0176
:1035600043960E94EE1BBE016F5F7F4FC8010E9411
:10357000011A91E0811190E0892F6B960FB6F894B3
:10358000DEBF0FBECDBFDF91CF911F910F91089588
:103590009F92AF92BF92CF92DF92EF92FF920F93E2
:1035A0001F93CF93DF938C01A62E972E862F972FF4
:1035B00040E050E0FF24FA94E1E0F0E01DC0ED01AE
:1035C000C60FD71FC881C11101C0FE206F5F7F4F9A
:1035D00064307105A1F72C5F3F4F2031310531F088
:1035E00060E070E0D901A80FB91FE9CF4F5F5F4FCE
:1035F00040964830510559F09F01042E01C0220F1A
:103600000A94EAF7E22EE09420E030E0E9CF80E08F
:1036100090E0B12CCF2CD12C9601082E02C035950C
:1036200027950A94E2F720FDB3940196883091051E
:1036300099F78F2D8F70D1F59CC0C6010C2E02C05A
:10364000959587950A94E2F780FF05C04C2F62E0BC
:10365000C8010E940A052196C430D10571F7C8013E
:103660000E94CE0286E990E00E94B901C0E0D0E05D
:10367000C6010C2E02C0959587950A94E2F780FF4B
:1036800005C04C2F62E0C8010E94B4042196C430EA
:10369000D10571F7C8010E94CE0286E990E00E9430
:1036A000B90181E0E81AF10821F406C0D4E0ED2E5A
:1036B000F12CC0E0D0E0C1CF2A2D392D80E090E080
:1036C00054C0DF01A60FB71FAC91A11101C0C0E02B
:1036D0006F5F7F4F64307105A1F74C5F5F4F4031E2
:1036E000510531F060E070E0FA01E20FF31FE9CF1D
:1036F000CC23A9F1FC01C4E0EE0FFF1FCA95E1F74E
:1037000029C08730910539F4D901A40FB51FA059FC
:10371000BF4F1C9207C0DE01A40FB51F50961C912D
:1037200050971C934F5F5F4F4430510551F76F5FC7
:103730007F4F2C5F3F4F6430710531F040E050E027
:10374000E901CE0FDF1FDDCF01967096883091051D
:1037500009F4B2CF2A2D392D60E070E0EFCF019649
:10376000205F3F4F8830910521F040E050E0C1E0FC
:10377000B9CF8B2DDF91CF911F910F91FF90EF90DB
:10378000DF90CF90BF90AF909F9008959C01AC01C7
:10379000405C5F4F20583F4F1AC0DF01A60FB71F94
:1037A000AC91A11117C06F5F7F4F64307105A9F70D
:1037B00004968031910531F060E070E0FC01E40F87
:1037C000F51FEBCF405F5F4F4217530729F080E0B2
:1037D00090E0F2CF81E0089580E00895FC017183CC
:1037E000608353834283358324830895CF93DF938B
:1037F00000D000D000D0CDB7DEB7322F262F632FF8
:1038000026960FB6F894DEBF0FBECDBFDF91CF91E5
:103810000C941004EF92FF920F931F93CF93DF93BA
:10382000CDB7DEB762970FB6F894DEBF0FBECDBF3F
:103830004F83588769877A878B879C87ED86FE86BA
:103840000F87188B298B3A8B6B857C8589899A89A0
:10385000680F791F49855A858F859889480F591FA8
:103860002F8138858D859E85280F391F3A832983BE
:103870005C834B837E836D833A815C817E8180E0B3
:1038800090E062960FB6F894DEBF0FBECDBFDF9119
:10389000CF911F910F91FF90EF90089597FB072E06
:1038A00016F4009407D077FD09D00E94621C07FC33
:1038B00005D03EF4909581959F4F08957095619540
:1038C0007F4F0895AA1BBB1B51E107C0AA1FBB1F56
:1038D000A617B70710F0A61BB70B881F991F5A959C
:1038E000A9F780959095BC01CD0108958F929F9284
:1038F000AF92BF92CF92DF92EF92FF92CF93DF937E
:10390000EC01688179818A819B816115710581054E
:10391000910521F464E279ED8BE597E02DE133EF39
:1039200041E050E00E94EA1C49015A019B01AC01B0
:10393000A7EAB1E40E94D71C6B017C01ACEEB4EFA6
:10394000A50194010E94E51CC60ED71EE81EF91EB3
:10395000F7FE06C081E0C81AD108E10880E8F80A3D
:10396000C882D982EA82FB82E894D7F8EE24FF2449
:10397000C601DF91CF91FF90EF90DF90CF90BF9085
:10398000AF909F908F9008950E94761C089580E0DC
:1039900091E00E94761C0895A0E0B0E080930001C1
:1039A00090930101A0930201B093030108950E9436
:1039B000061DA59F900DB49F900DA49F800D911D95
:1039C00011240895B7FF0C94D71C0E94D71C821BAA
:1039D000930B0895052E97FB16F4009407D057FD1E
:1039E0000DD00E94121D07FC09D07EF490958095A1
:1039F000709561957F4F8F4F9F4F089550954095DB
:103A0000309521953F4F4F4F5F4F0895A29FB001D2
:103A1000B39FC001A39F01D0B29F700D811D1124DF
:103A2000911D0895A1E21A2EAA1BBB1BFD010DC01A
:103A3000AA1FBB1FEE1FFF1FA217B307E407F5075E
:103A400020F0A21BB30BE40BF50B661F771F881F3A
:103A5000991F1A9469F760957095809590959B01D0
:0C3A6000AC01BD01CF010895F894FFCF28
:083A6C00010000000505050A38
:00000001FF
