:100000000C9434000C943E000C943E000C943E0082
:100010000C943E000C943E000C943E000C943E0068
:100020000C943E000C943E000C943E000C943E0058
:100030000C943E000C943E000C943E000C943E0048
:100040000C944B000C943E000C943E000C943E002B
:100050000C943E000C943E000C943E000C943E0028
:100060000C943E000C943E0011241FBECFEFD8E04C
:10007000DEBFCDBF0E945D000C9462000C940000B6
:10008000F89414BC15BC81E080936E0085B5826045
:1000900085BD789408951F920F920FB60F92112488
:1000A0008F939F9385B191E0892785B99F918F9117
:1000B0000F900FBE0F901F901895209A15B80E94B0
:0800C0004000FFCFF894FFCFD0
:00000001FF
