:100000000C9434000C9451000C9451000C94510049
:100010000C9451000C9451000C9451000C9451001C
:100020000C9451000C9451000C9451000C9451000C
:100030000C9451000C9451000C94B7010C94510095
:100040000C9451000C9451000C9451000C945100EC
:100050000C9451000C9451000C9451000C945100DC
:100060000C9451000C94510011241FBECFEFD8E026
:10007000DEBFCDBF11E0A0E0B1E0ECE0F7E002C0F0
:1000800005900D92A430B107D9F711E0A4E0B1E0DA
:1000900001C01D92AB33B107E1F70E941E020C9420
:1000A00084030C940000FC01168E178E10A211A27E
:1000B00012A213A214A215A216A217A210A611A68C
:1000C00012A613A614A615A616A617A610AA11AA5C
:1000D00012AA13AA14AA15AA0895FC01668F478FC5
:1000E00020A361A342A323A364A345A326A367A3DC
:1000F00040A721A762A743A724A765A746A727A7CC
:1001000060AB41AB22AB63AB44AB25AB08952F9200
:100110003F924F925F926F927F928F929F92AF9297
:10012000BF92CF92DF92EF92FF920F931F93CF93E4
:10013000DF93CDB7DEB76C970FB6F894DEBF0FBE76
:10014000CDBFFE013C9640E050E063C0898F9A8F9E
:10015000E98CFA8CE40EF51EE60EF71EAB8DBC8D15
:10016000EA0EFB1EE00EF11ED7015E96AC90A110C8
:1001700005C02150310937FF2DC027C02224239408
:10018000022E01C0220C0A94EAF7812C912C612CDA
:10019000712CB12C7201E40EF51EA1E0B0E0AC0FA1
:1001A000BD1FEA0EFB1E0DC06701C80CD91CD6018D
:1001B0003C9032283C92BFEF6B1A7B0AA2E08A0E79
:1001C000911C6A147B0484F3D4CFBFEF4B1A5B0AF3
:1001D00027E030E00D5F1F4F0630110509F0B6CF64
:1001E000AB8DBC8D1696BC8FAB8F1C9719F000E0C1
:1001F00010E0ACCF6F5F7F4F6330710519F01C8E3C
:100200001B8EF5CF445F5F4F3C964831510509F492
:100210004BC0DF011B971C92DF0119971C92DF0175
:1002200017971C92DF0115971C92DF0113971C9200
:10023000DF0111971C92DF011A971C92DF011897BA
:100240001C92DF0116971C92DF0114971C92DF01AC
:1002500012971C92108260E070E027E030E0412CA1
:10026000512CCDCF7801E40EF51E6D01C40ED51EC4
:10027000F601D080F701D6824E5F5F4F4C305105BA
:1002800089F72F5F3F4F2230310549F040E050E0C1
:1002900089010A0D1B1DD901A60FB71FE3CF0C96CC
:1002A0008831910519F40FC080E090E020E030E043
:1002B000A98CBA8CA80EB91E61E070E06C0F7D1F8E
:1002C000680F791FE3CF6C960FB6F894DEBF0FBEB0
:1002D000CDBFDF91CF911F910F91FF90EF90DF90F5
:1002E000CF90BF90AF909F908F907F906F905F90D6
:1002F0004F903F902F9008958EBD0DB407FEFDCF17
:100300008EB508950F931F93CF93DF938C012A9896
:10031000EB0106C0F801EC0FFD1F80810E947C01FB
:100320002197D7FFF7CF2A9ADF91CF911F910F9195
:10033000089584B18C6284B980E78CBD81E08DBD65
:100340000895F89414BC15BC82E080936E0085B5C6
:10035000846085BD84B5826084BD84E087BD16BCA1
:10036000E1E8F0E0808182608083789408951F92B4
:100370000F920FB60F9211242F933F934F935F93D9
:100380006F937F938F939F93AF93BF93EF93FF935D
:1003900085B18C7F85B9209105013091060140918E
:1003A000040156E0529FC001539F900D1124840F09
:1003B000911D880F991F62E070E0855F9E4F0E943B
:1003C000820145B1209105013091060181E090E064
:1003D000022E01C0880F0A94EAF7482B45B9809194
:1003E00004018F5F8093040180910401863059F4E9
:1003F000109204018091050190910601019690935D
:1004000006018093050180910501909106010297F4
:1004100021F41092060110920501FF91EF91BF9116
:10042000AF919F918F917F916F915F914F913F918C
:100430002F910F900FBE0F901F90189584B183607D
:1004400084B985B18C7F85B985E091E00E94530025
:1004500010920601109205010E9499010E94A101CB
:10046000B3E0EB2EF12C03E010E0C3E0D0E083E03A
:10047000A82EB12C0E941703B5010E94B2026C0194
:10048000009739F40E94170380FF02C0219601C033
:100490002197D7FD04C0C730D1058CF402C0C0E05D
:1004A000D0E082E0C816D10461F40E94170380FFF7
:1004B00003C00F5F1F4F05C00150110902C0C6E005
:1004C000D0E017FD04C0073011059CF402C000E025
:1004D00010E092E0C916D10471F40E94170380FF66
:1004E00004C08FEFE81AF80A06C091E0E91AF10893
:1004F00002C006E010E0F7FC05C087E0E816F10452
:1005000024F406C0E12CF12C03C0A6E0EA2EF12C65
:1005100085E091E00E9453002E2D402F6C2F85E046
:1005200091E00E946D0085E091E00E94870083EDDC
:1005300090E30197F1F700C000009CCFAA1BBB1B02
:1005400051E107C0AA1FBB1FA617B70710F0A61BD3
:10055000B70B881F991F5A95A9F780959095BC01F4
:10056000CD01089597FB072E16F4009407D077FD70
:1005700009D00E949E0207FC05D03EF4909581951B
:100580009F4F0895709561957F4F08958F929F9228
:10059000AF92BF92CF92DF92EF92FF92CF93DF9311
:1005A000EC01688179818A819B81611571058105E2
:1005B000910521F464E279ED8BE597E02DE133EFCD
:1005C00041E050E00E943A0349015A019B01AC010D
:1005D000A7EAB1E40E9427036B017C01ACEEB4EF03
:1005E000A50194010E943503C60ED71EE81EF91E10
:1005F000F7FE06C081E0C81AD108E10880E8F80AD1
:10060000C882D982EA82FB82E894D7F8EE24FF24DC
:10061000C601DF91CF91FF90EF90DF90CF90BF9018
:10062000AF909F908F9008950E94C602089580E039
:1006300091E00E94C6020895A0E0B0E0809300011E
:1006400090930101A0930201B093030108950E94C9
:100650005603A59F900DB49F900DA49F800D911DF2
:1006600011240895B7FF0C9427030E942703821BCF
:10067000930B0895052E97FB16F4009407D057FDB1
:100680000DD00E94620307FC09D07EF490958095FE
:10069000709561957F4F8F4F9F4F0895509540956E
:1006A000309521953F4F4F4F5F4F0895A29FB00166
:1006B000B39FC001A39F01D0B29F700D811D112473
:1006C000911D0895A1E21A2EAA1BBB1BFD010DC0AE
:1006D000AA1FBB1FEE1FFF1FA217B307E407F507F2
:1006E00020F0A21BB30BE40BF50B661F771F881FCE
:1006F000991F1A9469F760957095809590959B0164
:0C070000AC01BD01CF010895F894FFCFBB
:04070C0001000000E8
:00000001FF
