:100000000C9434000C9446000C9446000C9446006A
:100010000C9446000C9446000C9446000C94460048
:100020000C9446000C9446000C9446000C94460038
:100030000C9446000C9446000C9446000C94460028
:100040000C9446000C9446000C9446000C94460018
:100050000C9446000C9446000C9446000C94460008
:100060000C9446000C94460011241FBECFEFD8E03C
:10007000DEBFCDBF11E0A0E0B1E001C01D92A23112
:10008000B107E1F70E9447010C9478010C9400003D
:10009000EF92FF920F931F93CF93DF9310161106E9
:1000A0000CF05CC001501109F80153E0F595E7959B
:1000B0005A95E1F7A1E0B0E07D0102C0EE0CFF1C13
:1000C0008A95E2F7C7017E2D7095ED0102C0CC0F35
:1000D000DD1F4A95E2F7AE015C2F4095E20FF31F5A
:1000E0009BB197239BB9980117FF02C0295F3F4F2F
:1000F00093E0359527959A95E1F73195219531094A
:10010000EF01C20FD31F93E0220F331F9A95E1F73F
:10011000200F311F7D0102C0EE0CFF1C2A95E2F773
:1001200098819E2119F09BB1952B02C09BB194231D
:100130009BB99BB1982B9BB90150110988F62BB143
:1001400081E090E0062E01C0880F0A94EAF7982F0C
:10015000909592239BB99BB1982B9BB9DF91CF913E
:100160001F910F91FF90EF900895EF92FF920F93E0
:100170001F93CF93DF9340E050E010E000E020E0D9
:1001800030E060E870E02AC0FE01E80FF91FEE5F82
:10019000FE4FE081EE23B9F0FC012230310554F42A
:1001A000E40FF51F7B0102C0F594E794EA95E2F7AE
:1001B0000E2909C0EA0FFB1F7B0102C0F594E794EA
:1001C000EA95E2F71E29019684309105E9F62F5F42
:1001D0003F4F4C5F5F4F2430310551F080E090E09D
:1001E000E901CC0FDD1FCC0FDD1FDA011897CCCF52
:1001F0000093000110930101DF91CF911F910F91A6
:10020000FF90EF9008951092020110920301109256
:10021000040110920501109206011092070110923C
:1002200008011092090110920A0110920B0110921C
:100230000C0110920D0110920E0110920F011092FC
:1002400010011092110108950F931F93CF93DF9324
:1002500000D0CDB7DEB70E94B50080910001898340
:10026000809101018A8300E110E09E012F5F3F4FE2
:1002700047E050E066E070E085E090E00E944800D2
:100280000F900F90DF91CF911F910F9108958AB138
:10029000806E8AB9DD24D3940E9403010E94240158
:1002A00087EA91E60197F1F700C00000C0E0D0E0D6
:1002B00017C0F701E00FF11FEE5FFE4FD0820E94E2
:1002C000240187EA91E60197F1F700C000000F5F73
:1002D0001F4F0430110569F72196C430D105E1F2B2
:1002E00000E010E07E01EE0CFF1CEE0CFF1CE1CFE5
:0402F000F894FFCFB0
:00000001FF
