:100000000C9434000C943E000C943E000C943E0082
:100010000C943E000C943E000C943E000C943E0068
:100020000C943E000C943E000C943E000C943E0058
:100030000C943E000C943E000C943E000C943E0048
:100040000C943E000C943E000C943E000C943E0038
:100050000C943E000C943E000C943E000C943E0028
:100060000C943E000C943E0011241FBECFEFD8E04C
:10007000DEBFCDBF0E9440000C9456000C940000DF
:10008000569A8FEF87BD84B5806C84BD84B583603C
:1000900084BD85B5826085BD80E087BD815FEFE46A
:1000A000F3EC3197F1F700C00000F7CFF894FFCFE1
:00000001FF
