:100000000C9434000C943E000C943E000C943E0082
:100010000C943E000C943E000C943E000C943E0068
:100020000C943E000C943E000C943E000C943E0058
:100030000C943E000C943E000C943E000C943E0048
:100040000C943E000C943E000C943E000C943E0038
:100050000C943E000C943E000C943E000C943E0028
:100060000C943E000C943E0011241FBECFEFD8E04C
:10007000DEBFCDBF0E9440000C94A2000C94000093
:10008000CF93DF9300D000D0CDB7DEB790E080E80B
:100090000FB6F89480936100909361000FBE8AB10F
:1000A00088648AB984B18A6084B916BC8CE787BD3C
:1000B00084B5826484BD85B5836085BD109285005A
:1000C000109284008AE992E09093890080938800DE
:1000D000809180008064809380008091810089609D
:1000E000809381001092B20082E38093B30088EC89
:1000F0008093B4008091B000836A8093B0008091B7
:10010000B10081608093B1008CE790E09A8389838D
:1001100083E990E09C838B8380E090E0FC01EE0F0C
:10012000FF1F21E030E02C0F3D1FE20FF31F208165
:1001300027BD31E08327EBE4FDE13197F1F700C003
:080140000000ECCFF894FFCFA2
:00000001FF
