:100000000C9434000C943E000C943E000C943E0082
:100010000C943E000C943E000C943E000C943E0068
:100020000C943E000C943E000C943E000C943E0058
:100030000C943E000C943E000C943E000C943E0048
:100040000C943E000C943E000C943E000C943E0038
:100050000C943E000C943E000C943E000C943E0028
:100060000C943E000C943E0011241FBECFEFD8E04C
:10007000DEBFCDBF0E9440000C9499020C9400009A
:100080008AB18FEF8AB91BB881E023E097E03FE0A7
:100090004FE15FE362E07FE71BB8E3EFF1E0319708
:1000A000F1F700C000001BB8E3EFF1E03197F1F782
:1000B00000C000001BB8E3EFF1E03197F1F700C09A
:1000C00000001BB8E3EFF1E03197F1F700C000004A
:1000D0001BB8E3EFF1E03197F1F700C000001BB867
:1000E000E3EFF1E03197F1F700C000008BB9E3EFE7
:1000F000F1E03197F1F700C000001BB8E3EFF1E049
:100100003197F1F700C000001BB8E3EFF1E0319741
:10011000F1F700C000001BB8E3EFF1E03197F1F711
:1001200000C000001BB8E3EFF1E03197F1F700C029
:1001300000001BB8E3EFF1E03197F1F700C00000D9
:100140001BB8E3EFF1E03197F1F700C000001BB8F6
:10015000E3EFF1E03197F1F700C000001BB8E3EFE7
:10016000F1E03197F1F700C000001BB8E3EFF1E0D8
:100170003197F1F700C000001BB8E3EFF1E03197D1
:10018000F1F700C000008BB9E3EFF1E03197F1F730
:1001900000C000002BB9E3EFF1E03197F1F700C0A8
:1001A00000008BB9E3EFF1E03197F1F700C00000F8
:1001B0001BB8E3EFF1E03197F1F700C000001BB886
:1001C000E3EFF1E03197F1F700C000001BB8E3EF77
:1001D000F1E03197F1F700C000001BB8E3EFF1E068
:1001E0003197F1F700C000001BB8E3EFF1E0319761
:1001F000F1F700C000001BB8E3EFF1E03197F1F731
:1002000000C000001BB8E3EFF1E03197F1F700C048
:1002100000001BB8E3EFF1E03197F1F700C00000F8
:100220008BB9E3EFF1E03197F1F700C000002BB993
:10023000E3EFF1E03197F1F700C000009BB9E3EF85
:10024000F1E03197F1F700C000002BB9E3EFF1E0E6
:100250003197F1F700C000008BB9E3EFF1E031977F
:10026000F1F700C000001BB8E3EFF1E03197F1F7C0
:1002700000C000001BB8E3EFF1E03197F1F700C0D8
:1002800000001BB8E3EFF1E03197F1F700C0000088
:100290001BB8E3EFF1E03197F1F700C000001BB8A5
:1002A000E3EFF1E03197F1F700C000001BB8E3EF96
:1002B000F1E03197F1F700C000008BB9E3EFF1E016
:1002C0003197F1F700C000002BB9E3EFF1E031976F
:1002D000F1F700C000009BB9E3EFF1E03197F1F7CF
:1002E00000C000003BB9E3EFF1E03197F1F700C047
:1002F00000009BB9E3EFF1E03197F1F700C0000097
:100300002BB9E3EFF1E03197F1F700C000008BB9B2
:10031000E3EFF1E03197F1F700C000001BB8E3EF25
:10032000F1E03197F1F700C000001BB8E3EFF1E016
:100330003197F1F700C000001BB8E3EFF1E031970F
:10034000F1F700C000001BB8E3EFF1E03197F1F7DF
:1003500000C000008BB9E3EFF1E03197F1F700C086
:1003600000002BB9E3EFF1E03197F1F700C0000096
:100370009BB9E3EFF1E03197F1F700C000003BB922
:10038000E3EFF1E03197F1F700C000004BB9E3EF84
:10039000F1E03197F1F700C000003BB9E3EFF1E085
:1003A0003197F1F700C000009BB9E3EFF1E031971E
:1003B000F1F700C000002BB9E3EFF1E03197F1F75E
:1003C00000C000008BB9E3EFF1E03197F1F700C016
:1003D00000001BB8E3EFF1E03197F1F700C0000037
:1003E0001BB8E3EFF1E03197F1F700C000008BB9E3
:1003F000E3EFF1E03197F1F700C000002BB9E3EF34
:10040000F1E03197F1F700C000009BB9E3EFF1E0B4
:100410003197F1F700C000003BB9E3EFF1E031970D
:10042000F1F700C000004BB9E3EFF1E03197F1F7CD
:1004300000C000005BB9E3EFF1E03197F1F700C0D5
:1004400000004BB9E3EFF1E03197F1F700C0000095
:100450003BB9E3EFF1E03197F1F700C000009BB941
:10046000E3EFF1E03197F1F700C000002BB9E3EFC3
:10047000F1E03197F1F700C000008BB9E3EFF1E054
:100480003197F1F700C000001BB8E3EFF1E03197BE
:10049000F1F700C000006BB9E3EFF1E03197F1F73D
:1004A00000C000009BB9E3EFF1E03197F1F700C025
:1004B00000003BB9E3EFF1E03197F1F700C0000035
:1004C0004BB9E3EFF1E03197F1F700C000005BB901
:1004D000E3EFF1E03197F1F700C000007BB9E3EF03
:1004E000F1E03197F1F700C000005BB9E3EFF1E014
:1004F0003197F1F700C000004BB9E3EFF1E031971D
:10050000F1F700C000003BB9E3EFF1E03197F1F7FC
:1005100000C000009BB9E3EFF1E03197F1F700C0B4
:1005200000006BB9E3EFF1E03197F1F700C0000094
:06053000B3CDF894FFCFEB
:00000001FF
