:100000000C9434000C9446000C9446000C9446006A
:100010000C9446000C9446000C9446000C94460048
:100020000C9446000C9446000C9446000C94460038
:100030000C9446000C9446000C9446000C94460028
:100040000C9446000C9446000C94D1000C9446008D
:100050000C9446000C9446000C9446000C94460008
:100060000C9446000C94460011241FBECFEFD8E03C
:10007000DEBFCDBF11E0A0E0B1E001C01D92A6340B
:10008000B107E1F70E9403010C9469010C94000090
:1000900007C0E9EFF0E03197F1F700C000000197E9
:1000A0000097B9F70895FC01108211821282DC01D9
:1000B000AD5BBF4F1C92DC01AC5BBF4F81E08C930A
:1000C000EB5BFF4F10820895FC01DC01AD5BBF4F7D
:1000D0001C9291818281981306C02081222319F0FD
:1000E00081E08C930895DF01A80FB11D13966C93E6
:1000F000282F2F5F228380818F5F8083203409F433
:1001000012822281DF01AB5BBF4F921305C08823AF
:1001100019F081E08C930AC01C92921307C08111E0
:1001200005C0EC5BFF4F81E080830895EC5BFF4FDF
:1001300010820895FC01DC01AD5BBF4F1C929181E0
:100140002281921307C08081811104C082E08C93C8
:1001500080E00895DF01A90FB11D13968C91392F0E
:100160003F5F3183908191509083303409F4118244
:100170003181DF01AB5BBF4F321305C0992319F00A
:1001800091E09C930AC01C92321307C0911105C0E4
:10019000EC5BFF4F91E090830895EC5BFF4F108282
:1001A00008951F920F920FB60F9211242F933F9331
:1001B0004F935F936F937F938F939F93AF93BF936F
:1001C000EF93FF930BC00E946201682F80E091E0E3
:1001D0000E94640081E28A95F1F700008091C000DE
:1001E00087FDF1CFFF91EF91BF91AF919F918F91DB
:1001F0007F916F915F914F913F912F910F900FBE23
:100200000F901F90189584B1836084B981E085B9FF
:100210002FE38DE093E0215080409040E1F700C053
:10022000000083E085B92FE38DE093E0215080400A
:100230009040E1F700C0000015B880E091E00E9416
:1002400053000E9451018091C10080688093C100D9
:1002500002C00E9462018091C00087FDFACF7894AD
:10026000C1E0D2E08091440181110CC080E091E0B6
:100270000E949A00C5B92AE0829FC00111240E9401
:10028000480015B883E294EF0197F1F700C0000031
:10029000D5B983E294EF0197F1F700C0000015B8DB
:1002A000E1CF1092C5008CE08093C400E0ECF0E058
:1002B00080818260808388E18093C10086E08093A2
:1002C000C20008958091C00087FFFCCF8091C600D6
:0602D0000895F894FFCF31
:00000001FF
